:100000000C94B8000C94E0000C94E0000C94E00018
:100010000C94E0000C94E0000C94E0000C94E000E0
:100020000C94E0000C94E0000C94E0000C94E000D0
:100030000C94E0000C94E0000C94E0000C94E000C0
:100040000C94E0000C94E0000C9415050C94E00076
:100050000C945F070C94E0000C94E0000C94E0001A
:100060000C94E0000C94E0000C94E0000C94E00090
:100070000C949C070C94E0000C94E000000000003D
:100080000E0E0E0E1F1F1F1F0000000000000000BC
:100090001F1F1F1F030303030000000003070F1FA0
:1000A0001F1F1F1F181C1E1F1F1F1F1F1F1F1F1F6B
:1000B0001F0F07031F1F1F1F1F1E1C18000000001B
:1000C000000E0E0E1F1F1F0000001F1F1E1E1E1EF3
:1000D0001E1F1F1F00000000001F1F1F1F1F1F00EB
:1000E000000000001F1F1F1E1E1E1F1F1F1F1F0FAF
:1000F0000F0F1F1F1F1F1F1E1E1E1E1E0021242745
:100100002A002225282B002023262902020202028F
:1001100002020204040404040404040303030303AA
:10012000030303010101010101010101020408109F
:1001300020408001020408102040800102040810C1
:1001400020408080402010080402010000000102CD
:10015000000000000000000403070600000000008B
:100160000000000000000000000000000003600626
:1001700011241FBECFEFD0E1DEBFCDBF11E0A0E064
:10018000B1E0EAE8F0E102C005900D92A238B107B3
:10019000D9F714E0A2E8B1E001C01D92AD3BB10770
:1001A000E1F711E0C0E7D1E004C02297FE010E9410
:1001B0003F08CC36D107C9F70E940E050C944308BE
:1001C0000C9400000F931F938C01FC01848160E06C
:1001D0000E94150681E090E00E94AF05F80184813D
:1001E00061E00E94150681E090E00E94AF05F801F1
:1001F000848160E00E94150684E690E00E94AF05CD
:100200001F910F910895CF92DF92EF92FF920F937B
:100210001F93CF93DF93D82EC92E282F392FC901D2
:100220008C01C0E0D0E0E62EFF24F801858161E07A
:100230000E94F705B7010C2E02C0759567950A94C8
:10024000E2F76170F80185810E94150621960F5F23
:100250001F4FC830D10549F78D2D9C2D0E94E2001B
:10026000DF91CF911F910F91FF90EF90DF90CF9092
:100270000895CF92DF92EF92FF920F931F93CF9347
:10028000DF93D82EC92E282F392FC9018C01C0E049
:10029000D0E0E62EFF24F801858161E00E94F70599
:1002A000B7010C2E02C0759567950A94E2F761704C
:1002B000F80185810E94150621960F5F1F4FC430FB
:1002C000D10549F78D2D9C2D0E94E200DF91CF9141
:1002D0001F910F91FF90EF90DF90CF9008951F93A3
:1002E000CF93DF93EC01162F8A81642F0E941506AD
:1002F0008B8160E00E9415068D8584FF05C0CE01CC
:10030000612F0E9403010EC0612F70E084E075959B
:1003100067958A95E1F7CE010E943901CE01612FE0
:100320000E943901DF91CF911F91089541E00E9411
:100330006F01089540E00E946F010895FC016685F9
:10034000862F846086876C60CF010E949A01089591
:10035000DF93CF93CDB7DEB728970FB6F894DEBF03
:100360000FBECDBF9C01FE013196A3E7B1E088E04E
:100370000D9001928150E1F7F9018189841710F401
:10038000482F4150E42FF0E0EE0FFF1FEC0FFD1F50
:100390008181680F6068C9010E949A0128960FB692
:1003A000F894DEBF0FBECDBFCF91DF91089561E01D
:1003B0000E949A0180ED97E00E94AF050895CF93C7
:1003C000DF93EC01423018F08D8588608D87498B72
:1003D0001A8A222329F0413019F48D8584608D8793
:1003E00080E593EC0E94AF058A8160E00E941506CB
:1003F0008C8160E00E9415068B8160E00E941506EA
:100400006D8564FD1DC0CE0163E00E94390184E961
:1004100091E10E94AF05CE0163E00E94390184E9B9
:1004200091E10E94AF05CE0163E00E94390186E9A7
:1004300090E00E94AF05CE0162E00E94390116C033
:100440006062CE010E949A0184E991E10E94AF05A9
:100450006D856062CE010E949A0186E990E00E945B
:10046000AF056D856062CE010E949A016D85606264
:10047000CE010E949A0184E08E87CE010E949E01E7
:10048000CE010E94D70182E08F87CE0166E00E94F4
:100490009A01DF91CF9108956F927F928F92AF92E0
:1004A000CF92EF920F931F93DF93CF93CDB7DEB729
:1004B0003C01162F842FF301428323830483E582BA
:1004C000C682A78280869D8591879E8592879F851B
:1004D00093879889948761E00E94F705F3018381EF
:1004E00061E00E94F705F301848161E00E94F70555
:1004F000112319F0F301158603C080E1F30185870C
:10050000C30160E141E020E00E94DF01CF91DF9173
:100510001F910F91EF90CF90AF908F907F906F9041
:1005200008958F92AF92CF92EF920F931F93CF9334
:10053000DF93DC01362F542F722F102FAE2C8C2C12
:1005400081E791E011969C938E9300D000D0EDB797
:10055000FEB73196CDB7DEB71982118212821382AF
:10056000CD0161E0432F2FEF052FE72EC12E0E9412
:100570004C020F900F900F900F90DF91CF911F9131
:100580000F91EF90CF90AF908F900895803311F43A
:1005900080E00895813311F481E00895823311F4ED
:1005A00082E00895833311F483E00895843311F4D5
:1005B00084E00895853311F485E00895863311F4BD
:1005C00086E00895873311F487E00895883311F4A5
:1005D00088E00895893311F489E00895833411F493
:1005E0008AE00895863411F48BE008958C3411F478
:1005F0008CE00895873411F08EE008958DE0089521
:10060000CF92EF920F9380E993E061E143E124E11F
:1006100005E156E1E52E37E1C32E0E9491020F91CC
:10062000EF90CF9008950F931F93CF93DF9305E141
:1006300010E053C08FEA93E00E947506482F8D307A
:1006400011F08A3059F410928F03E2E8F1E0108241
:10065000759683E0E632F807D1F73FC080918F03AB
:10066000493089F4893120F48F5F80938F0335C03E
:1006700010928F03E2E8F1E01082759683E0E63293
:10068000F807D1F72AC090E0809F9001819F300D3C
:10069000909F300D1124E901CE57DE4FFE010190ED
:1006A0000020E9F73197AE2FAC1BA43160F4B0E025
:1006B000F901EA0FFB1FEE57FE4F4083AC0FBD1F41
:1006C00011961C920AC010928F03E2E8F1E01082AA
:1006D000759683E0E632F807D1F78FEA93E00E943F
:1006E0007A06882309F0A6CFDF91CF911F910F9151
:1006F0000895FF920F931F93282FF42E00E913E023
:10070000C801422F0E94A801C8016F2D0E949601C6
:100710001F910F91FF900895FF920F931F93282F21
:10072000F42E00E913E0C801422F0E94A801C8017D
:100730006F2D0E9496011F910F91FF9008950F93C6
:100740001F93CF93DF93082F162FC42FD0E0FE0105
:10075000EE0FFF1FE959FE4F4081483018F00E940C
:10076000790302C00E948C03CC0FDD1FC959DE4FF4
:100770004981802F8F5F483020F4612F0E948C03C5
:1007800003C0612F0E947903DF91CF911F910F91D8
:100790000895DF92EF92FF920F931F93CF93DF9311
:1007A000F82EE62E50E0440F551F440F551FEA0166
:1007B000C55DDE4FD62ED3948A01015D1E4F0EC05B
:1007C0008F2D6D2D0E948C0304C08F2D6D2D0E94E6
:1007D00079032296F394C017D10781F048814830FD
:1007E00028F08F2D6E2D0E94790304C08F2D6E2D61
:1007F0000E948C034981483018F3E7CFDF91CF91F5
:100800001F910F91FF90EF90DF900895FF920F934B
:100810001F93CF93DF93EA01FF2400E01FC0EE3265
:1008200011F411E003C0EA3301F512E080E06F2D0E
:10083000412F0E949F03F39411110F5FFE01E00FFF
:10084000F11D8081882351F00E94C602482F80E06C
:100850006F2D0E94C90382E0F80E0F5FFE01E00FCA
:10086000F11DE081EE23D9F604C0002339F310E036
:10087000DDCFDF91CF911F910F91FF9008950F93DE
:100880001F93CF93DF938B01682F660F660F660F60
:10089000606480E993E00E949A01C0E0D0E0F80132
:1008A000EC0FFD1FE49180E993E06E2F0E9496010A
:1008B0002196C830D10599F780E993E060E80E945D
:1008C0009A01DF91CF911F910F91089580E06CEB19
:1008D00070E00E943F0481E064EC70E00E943F04FD
:1008E00082E06CEC70E00E943F0483E064ED70E015
:1008F0000E943F0484E06CED70E00E943F0485E0BC
:1009000064EE70E00E943F0486E06CEE70E00E94AE
:100910003F0487E064EF70E00E943F04089580E99F
:1009200093E00E94D701089580E993E064E144E0F8
:1009300020E00E94DF0108950E948F0480E060E0C3
:1009400041E051E00E94060468EB7BE080E090E02B
:100950000E9485050E948F0480E060E047E051E03E
:100960000E94060468EB7BE080E090E00E94850531
:100970000E948F0480E060E04DE051E00E94060498
:1009800068EB7BE080E090E00E9485050E948F0488
:1009900080E060E043E151E00E94060468EB7BE008
:1009A00080E090E00E9485050E948F0480E060E076
:1009B0004AE151E00E94060468EB7BE080E090E0B1
:1009C0000E9485050E948F0480E060E040E251E0D3
:1009D0000E94060468EB7BE080E090E00E948505C1
:1009E0000E948F0480E060E046E251E00E9406042D
:1009F00068EB7BE080E090E00E9485050E94130395
:100A000008958FEA93E040E855E260E070E00E94CC
:100A10007F060E9494040E94660408950E94BD050A
:100A20000E9401050E949C04FDCF1F920F920FB6F9
:100A30000F9211242F938F939F93AF93BF93809125
:100A4000A3039091A403A091A503B091A6030196DE
:100A5000A11DB11D8093A3039093A403A093A503AC
:100A6000B093A6038091A7039091A803A091A90336
:100A7000B091AA038050904CAF4FBF4F8093A70313
:100A80009093A803A093A903B093AA0327C08091D1
:100A9000A7039091A803A091A903B091AA0380583D
:100AA0009E43A040B0408093A7039093A803A093D7
:100AB000A903B093AA038091AB039091AC03A091DA
:100AC000AD03B091AE030196A11DB11D8093AB03A0
:100AD0009093AC03A093AD03B093AE038091A703B2
:100AE0009091A803A091A903B091AA0381589E43B5
:100AF000A040B04060F6BF91AF919F918F912F9130
:100B00000F900FBE0F901F901895EF92FF920F93CA
:100B10001F937B018C018FB7F8944091AB035091E8
:100B2000AC036091AD037091AE038FBF2FB7F89403
:100B30008091AB039091AC03A091AD03B091AE0353
:100B40002FBF841B950BA60BB70BE816F9060A07F7
:100B50001B0760F71F910F91FF90EF900895019789
:100B600059F0FC01EE0FFF1FEE0FFF1F32978FB7FA
:100B7000F8943197F1F78FBF0895789484B5826027
:100B800084BD84B5816084BD85B5826085BD85B531
:100B9000816085BDEEE6F0E0808181608083E1E8E0
:100BA000F0E0808182608083808181608083E0E8E2
:100BB000F0E0808181608083E1EBF0E080818460FF
:100BC0008083E0EBF0E0808181608083EAE7F0E001
:100BD0008081846080838081826080838081816065
:100BE00080838081806880831092C1000895282FBF
:100BF00030E0C901855D9E4FFC019491255F3E4F19
:100C0000F9018491882381F0E82FF0E0E450FF4F50
:100C1000E491F0E0662329F4808190958923808314
:100C200008958081892B80830895482F50E0CA0160
:100C3000855B9E4FFC012491CA01855D9E4FFC019E
:100C40009491455F5E4FFA0134913323C1F1222321
:100C500031F1213019F484B58F7704C0223021F4AA
:100C600084B58F7D84BD1BC0233021F4809180002A
:100C70008F7705C0243031F4809180008F7D809380
:100C800080000DC0263021F48091B0008F7705C020
:100C9000273029F48091B0008F7D8093B000E32F3E
:100CA000F0E0EF5FFE4FE491F0E0662329F48081ED
:100CB00090958923808308958081892B808308956E
:100CC0008FE791E09093B0038093AF031092B1034C
:100CD0009093B3038093B20381E08093B4030895AB
:100CE000FC0182810E940C070895FC0182810E9410
:100CF00032070895FC0182810E941C070895FC01BF
:100D000082810E9484060895EF92FF920F931F93B1
:100D10007A018B018823F1F5CB01BA0122E030E0A2
:100D200040E050E00E940E08205C3D4B404F5F4F7A
:100D3000CA01B901A80197010E940E08C901DA0190
:100D40000197A109B109292F3A2F4B2F552747FDAC
:100D50005A950196A11DB11D2093C5008150809325
:100D6000C4001092C0001092C1001092C200809185
:100D7000C10080618093C1008091C1008860809330
:100D8000C1008091C10080688093C10086E080939B
:100D9000C2003DC0CB01BA0122E030E040E050E0AB
:100DA0000E940E08205C3D4B404F5F4FCA01B901C5
:100DB000A80197010E940E08C901DA010197A10953
:100DC000B109292F3A2F4B2F552747FD5A950196E8
:100DD000A11DB11D2093CD0081508093CC001092B5
:100DE000C8001092C9001092CA008091C9008061A9
:100DF0008093C9008091C90088608093C900809168
:100E0000C90080688093C90086E08093CA001F9162
:100E10000F91FF90EF900895882339F48091C000DE
:100E200085FFFCCF6093C60008958091C80085FFC0
:100E3000FCCF6093CE000895E82FF0E0EE0FFF1F87
:100E4000DF01AB54BC4F8D919C9180589F4FE7546C
:100E5000FC4F20813181821B930B60E870E00E947F
:100E6000D9070895CF93DF93A82FB0E0FD01EE0FCF
:100E7000FF1FEF01C754DC4F48815981EB54FC4FF1
:100E8000808191818417950719F42FEF3FEF13C0EC
:100E9000B695BA2FAA27B795A795A40FB51FA35447
:100EA000BC4F2C91CA01019660E870E00E94D907FE
:100EB0009983888330E0C901DF91CF9108951F9213
:100EC0000F920FB60F9211242F933F934F935F937E
:100ED0006F937F938F939F93AF93BF93EF93FF9302
:100EE0004091C600E091B503F091B603CF010196A1
:100EF00060E870E00E94D9079C018091B90390914D
:100F0000BA032817390739F0E354FC4F4083309374
:100F1000B6032093B503FF91EF91BF91AF919F91DD
:100F20008F917F916F915F914F913F912F910F9092
:100F30000FBE0F901F9018951F920F920FB60F9231
:100F400011242F933F934F935F936F937F938F93CE
:100F50009F93AF93BF93EF93FF934091CE00E091A7
:100F6000B703F091B803CF01019660E870E00E94EA
:100F7000D9079C018091BB039091BC0328173907C6
:100F800039F0E35CFB4F40833093B8032093B70301
:100F9000FF91EF91BF91AF919F918F917F916F9151
:100FA0005F914F913F912F910F900FBE0F901F9027
:100FB000189597FB092E07260AD077FD04D049D053
:100FC00006D000201AF4709561957F4F0895F6F7CA
:100FD000909581959F4F0895A1E21A2EAA1BBB1BE5
:100FE000FD010DC0AA1FBB1FEE1FFF1FA217B307F5
:100FF000E407F50720F0A21BB30BE40BF50B661F0B
:10100000771F881F991F1A9469F7609570958095CE
:1010100090959B01AC01BD01CF01089597FB092E6E
:1010200005260ED057FD04D0D7DF0AD0001C38F4B7
:1010300050954095309521953F4F4F4F5F4F089504
:10104000F6F790958095709561957F4F8F4F9F4FE4
:101050000895AA1BBB1B51E107C0AA1FBB1FA617FF
:10106000B70710F0A61BB70B881F991F5A95A9F751
:1010700080959095BC01CD010895EE0FFF1F05905E
:0A108000F491E02D0994F894FFCFDD
:10108A000031323334350036373839300039372EAB
:10109A003243003135322E36460032342E334C007C
:1010AA0031322E344700313A32350007FF02FFFE53
:1010BA00FFFEFF0106FF03010603FF02FFFEFF0515
:1010CA000103FF050102FF0406FEFF0506050605EA
:1010DA0006FEFF07040203FF01FFFEFFFEFF0307F0
:1010EA00040206FEFEFEFEFEFEFE000000000000F8
:1010FA000096010000400014005400000000007037
:02110A000600DD
:00000001FF
