:100000000C9463000C94F2010C941F020C948B006E
:100010000C948B000C948B000C948B000C948B0034
:100020000C948B000C948B000C948B000C948B0024
:100030000C948B000C948B000C948B000C948B0014
:100040000C944C020C948B000C94A4030C948B0025
:100050000C948B000C948B000C948B000C948B00F4
:100060000C948B000C948B000000000024002700EF
:100070002A0000000000250028002B0000000000DE
:1000800023002600290004040404040404040202DA
:100090000202020203030303030301020408102007
:1000A0004080010204081020010204081020000012
:1000B0000007000201000003040600000000000029
:1000C0000000E700290511241FBECFEFD8E0DEBFF6
:1000D000CDBF11E0A0E0B1E0EAE4FCE002C0059091
:1000E0000D92A431B107D9F713E0A4E1B1E001C04A
:1000F0001D92AB3DB107E1F710E0C6ECD0E004C0C3
:100100002297FE010E941F06C23CD107C9F70E9438
:10011000C8010C9423060C940000CF93DF93EC01EC
:100120008A859B85892B99F18E819F81A885B985C8
:100130000097A105B10559F14A815B816C817D81F0
:10014000EE85FF858C859D8521E00995882311F03A
:1001500080E01EC08A859B8580509240C1F41B863A
:100160001A868A819B81AC81BD810196A11DB11D3A
:100170008A839B83AC83BD838E819F81A885B9854B
:100180000197A109B1098E839F83A887B98781E070
:10019000DF91CF910895DC011C96ED91FC911D97A4
:1001A0001A968D919C911B97E80FF91F60831A9600
:1001B0008D919C911B9701961B969C938E931A97F9
:1001C0008050924019F4CD010E948D00089584E082
:1001D00091E09093160180931501089582E00E94AA
:1001E0005503019759F40E94A00260933303709362
:1001F0003403809335039093360308950E94A00240
:1002000020913303309134034091350350913603EC
:10021000621B730B840B950B695E734080409040AA
:1002200020F082E08093140108950E94A0022091A2
:100230003303309134034091350350913603621BF0
:10024000730B840B950B6F3171058105910518F0C7
:1002500081E08093140108950F931F93CF93DF9350
:1002600005E110E053C088EC93E00E94EE04482FB3
:100270008D3011F08A3059F410923203E5E2F1E04A
:100280001082759682E0E93CF807D1F73FC0809173
:100290003203493089F4893120F48F5F809332032F
:1002A00035C010923203E5E2F1E01082759682E0EB
:1002B000E93CF807D1F72AC090E0809F9001819F28
:1002C000300D909F300D1124E901CB5DDE4FFE0112
:1002D00001900020E9F73197AE2FAC1BA43160F4F8
:1002E000B0E0F901EA0FFB1FEB5DFE4F4083AC0F5E
:1002F000BD1F11961C920AC010923203E5E2F1E094
:100300001082759682E0E93CF807D1F788EC93E01B
:100310000E94DA04882309F0A6CFDF91CF911F91C4
:100320000F9108950E942C0180911401813039F4BD
:1003300084E061E00E94080383E060E008C082304E
:1003400041F484E060E00E94080383E061E00E94E1
:10035000080310921401089588EC93E040E855E2F8
:1003600060E070E00E94E10383E061E00E94E80247
:1003700084E061E00E94E80282E060E00E94E8021E
:1003800080E06EEE70E041E050E00E94CF01089501
:100390000E94AE020E94AC010E949201FDCF823009
:1003A00000F5E82FF0E0EE0FFF1FE95CFC4F7183D2
:1003B0006083882319F08130A1F408C0809169001E
:1003C0008C7F842B80936900E89A0895809169005E
:1003D000440F551F440F551F837F842B8093690062
:1003E000E99A08951F920F920FB60F9211242F933E
:1003F0003F934F935F936F937F938F939F93AF93AD
:10040000BF93EF93FF938091370390913803892B2B
:1004100029F0E0913703F09138030995FF91EF91AE
:10042000BF91AF919F918F917F916F915F914F910C
:100430003F912F910F900FBE0F901F9018951F9214
:100440000F920FB60F9211242F933F934F935F9308
:100450006F937F938F939F93AF93BF93EF93FF938C
:100460008091390390913A03892B29F0E091390367
:10047000F0913A030995FF91EF91BF91AF919F9150
:100480008F917F916F915F914F913F912F910F903D
:100490000FBE0F901F9018951F920F920FB60F92DC
:1004A00011242F933F934F935F936F937F938F9379
:1004B0009F93AF93BF9320913F03309140034091AE
:1004C00041035091420370914303DA01C90102963E
:1004D000A11DB11D672F6A5F6D3730F06D57DA01CE
:1004E000C9010396A11DB11D6093430380933F038F
:1004F00090934003A0934103B093420380913B0348
:1005000090913C03A0913D03B0913E030196A11D43
:10051000B11D80933B0390933C03A0933D03B093A4
:100520003E03BF91AF919F918F917F916F915F91AA
:100530004F913F912F910F900FBE0F901F901895E4
:100540008FB7F89420913F033091400340914103CD
:10055000509142038FBFB901CA010895789484B5C0
:10056000826084BD84B5816084BD85B5826085BDAF
:1005700085B5816085BDEEE6F0E080818160808395
:10058000E1E8F0E080818260808380818160808307
:10059000E0E8F0E0808181608083E1EBF0E0808141
:1005A00084608083E0EBF0E0808181608083EAE713
:1005B000F0E080818460808380818260808380819C
:1005C000816080838081806880831092C10008955B
:1005D000282F30E0C90186569F4FFC0194912A577D
:1005E0003F4FF9018491882391F0E82FF0E0EE0F5E
:1005F000FF1FE859FF4FA591B491662329F48C9110
:10060000909589238C9308958C91892B8C930895D0
:10061000482F50E0CA0182559F4FFC012491CA0126
:1006200086569F4FFC0194914A575F4FFA013491CF
:100630003323D1F1222331F1233021F48091800042
:100640008F7705C0243031F4809180008F7D8093B6
:10065000800018C0213019F484B58F7704C022308F
:1006600021F484B58F7D84BD0DC0263021F48091A6
:10067000B0008F7705C0273029F48091B0008F7DBE
:100680008093B000E32FF0E0EE0FFF1FEE58FF4F16
:10069000A591B491662329F48C91909589238C932C
:1006A00008958C91892B8C930895682F70E0CB016D
:1006B00082559F4FFC012491CB0186569F4FFC0130
:1006C00044916A577F4FFB019491992319F420E0DC
:1006D00030E038C0222331F1233021F480918000B2
:1006E0008F7705C0243031F4809180008F7D809316
:1006F000800018C0213019F484B58F7704C02230EF
:1007000021F484B58F7D84BD0DC0263021F4809105
:10071000B0008F7705C0273029F48091B0008F7D1D
:100720008093B000892F90E0880F991F84589F4FC5
:10073000FC01A591B4918C9120E030E0842311F06C
:1007400021E030E0C90108951F920F920FB60F9279
:1007500011242F933F934F935F936F937F938F93C6
:100760009F93AF93BF93EF93FF934091C600E091A7
:10077000C403F091C503CF01019660E870E00E94C8
:10078000B9059C018091C6039091C70328173907CA
:1007900039F0EC5BFC4F40833093C5032093C403D6
:1007A000FF91EF91BF91AF919F918F917F916F9149
:1007B0005F914F913F912F910F900FBE0F901F901F
:1007C00018955F926F927F928F929F92AF92BF9295
:1007D000CF92DF92EF92FF920F931F93CF93DF930D
:1007E000EC013A014B01413281EA580787E0680782
:1007F00080E078070CF07FC060E472E48FE090E066
:10080000A40193010E94EE05215030404040504029
:10081000CA01B90122E030E040E050E00E94EE055C
:1008200059016A01A6019501209530954095509592
:1008300094E0220F331F441F551F9A95D1F760E0B3
:1008400072E18AE790E00E94EE05CA01B9012FEF3C
:1008500030E040E050E00E949A05A40193010E941C
:10086000EE05C90181509F4F181619061CF4522E2F
:100870005A9403C055245394521A60E874E88EE1E8
:1008800090E0A40193010E94EE05215030404040C9
:100890005040CA01B90122E030E040E050E00E943F
:1008A000EE05209530954095509583E0220F331F3B
:1008B000441F551F8A95D1F760E072E18AE790E006
:1008C0000E94EE05CA01B9012FEF30E040E050E090
:1008D0000E949A05A40193010E94EE05C90181506E
:1008E0009F4F181619061CF4822F815002C081E018
:1008F000821B851500F5E885F98581E090E00A887E
:1009000002C0880F991F0A94E2F7808360E874E8B8
:100910008EE190E0A40193010E94EE052150304049
:1009200040405040CA01B90122E030E040E050E0D0
:100930000E94EE0504C0E885F98510829501EC81DE
:10094000FD813083EE81FF812083EA85FB85208154
:1009500041E050E0CA010E8402C0880F991F0A943A
:10096000E2F7282B2083EA85FB852081CA010F84CA
:1009700002C0880F991F0A94E2F7282B2083EA858A
:10098000FB858081088802C0440F551F0A94E2F756
:10099000842B8083DF91CF911F910F91FF90EF9077
:1009A000DF90CF90BF90AF909F908F907F906F908F
:1009B0005F900895DC011296ED91FC911397E05839
:1009C000FF4F8191919180589F4F20813181821BEF
:1009D000930B60E870E00E94B9050895CF93DF9310
:1009E000DC011296ED91FC911397EF01CE57DF4F8A
:1009F00048815981E058FF4F80819181E058F04053
:100A00008417950719F42FEF3FEF0CC0E40FF51F83
:100A10002081CA01019660E870E00E94B9059983BF
:100A2000888330E0C901DF91CF910895FC01A08552
:100A3000B18521898C9190E0022E02C09595879511
:100A40000A94E2F780FFF6CF0484F585E02D6083F9
:100A500008958EE091E09093C9038093C80384E4E5
:100A600093E09093CB038093CA0385EC90E090933E
:100A7000CD038093CC0384EC90E09093CF038093DC
:100A8000CE0380EC90E09093D1038093D00381EC6F
:100A900090E09093D3038093D20386EC90E0909300
:100AA000D5038093D40384E08093D60383E08093BE
:100AB000D70387E08093D80385E08093D90381E052
:100AC0008093DA0308950F931F93CF93DF938C01E4
:100AD000EB0109C02196D801ED91FC910190F081C4
:100AE000E02DC801099568816623A1F7DF91CF91B8
:100AF0001F910F910895EF92FF920F931F93CF9341
:100B0000DF938C017B01EA010CC0D7016D917D015F
:100B1000D801ED91FC910190F081E02DC80109957B
:100B20002197209791F7DF91CF911F910F91FF901F
:100B3000EF900895629FD001739FF001829FE00DB6
:100B4000F11D649FE00DF11D929FF00D839FF00D4C
:100B5000749FF00D659FF00D9927729FB00DE11DF8
:100B6000F91F639FB00DE11DF91FBD01CF011124D5
:100B7000089597FB092E07260AD077FD04D049D0A7
:100B800006D000201AF4709561957F4F0895F6F70E
:100B9000909581959F4F0895A1E21A2EAA1BBB1B29
:100BA000FD010DC0AA1FBB1FEE1FFF1FA217B30739
:100BB000E407F50720F0A21BB30BE40BF50B661F4F
:100BC000771F881F991F1A9469F760957095809513
:100BD00090959B01AC01BD01CF01089597FB092EB3
:100BE00005260ED057FD04D0D7DF0AD0001C38F4FC
:100BF00050954095309521953F4F4F4F5F4F089549
:100C0000F6F790958095709561957F4F8F4F9F4F28
:100C10000895AA1BBB1B51E107C0AA1FBB1FA61743
:100C2000B70710F0A61BB70B881F991F5A95A9F795
:100C300080959095BC01CD010895EE0FFF1F0590A2
:0A0C4000F491E02D0994F894FFCF21
:100C4A0000000000CB0063057B05000000001605CC
:040C5A0063057B05AE
:00000001FF
