:020000040000FA
:06000000ECEFA9F0120074
:020006001200E6
:06000800B3EFA1F01200AD
:02000E000004EC
:04001000A300000049
:030014000D0A00D2
:0100170000E8
:0600180056EFA1F01200FA
:02001E000E00D2
:10002000B2540100B80300000100000017000000F6
:10003000B703000001000000B0540100B30300004A
:1000400002000000A8540100960300000800000010
:10005000A5540100A603000003000000395401006C
:10006000000E00006C00000037540100B1030000D6
:100070000200000033540100A2030000040000004D
:10008000AB420100B6030000010000002A54010049
:100090008D0300000900000028540100AF03000098
:1000A00002000000245401009E0300000400000030
:1000B00022540100AD0300000200000020540100A2
:0800C000A9030000020000008A
:0800C8000301AF51B05D01E13D
:1000D00070D0FE0EB05D35E0250EE66EE66A010ECC
:1000E000E66E020EE66E030EE66EB0511C0DF3CF07
:1000F000E9FFF4CFEAFF000EE9260F0EEA221B0EFD
:10010000E926000EEA22EF50E66EB0511C0DF3CF47
:10011000E9FFF4CFEAFF000EE9260F0EEA22EECF48
:1001200014F0EFCF15F0250E145E000E155A14C012
:10013000E6FF15C0E6FFF2EC43F0166E080EE15E36
:100140001650AFC3B0F3250EE66EE66A0301AF5159
:100150001C0DF3CFE9FFF4CFEAFF000EE9260F0EE6
:10016000EA221B0EE926000EEA22EF50E66EAF519E
:100170001C0DF3CFE9FFF4CFEAFF000EE9260F0EC6
:10018000EA22EECF14F0EFCF15F0250E145E000E2C
:10019000155A14C0E6FF15C0E6FF010EE66E020E0A
:1001A000E66E030EE66EF2EC43F0166E080EE15EAC
:1001B00016501200D9CFE6FFE1CFD9FF0B0EE12692
:1001C000E40EF36E090EF3CFDBFF140EF36E0A0E8E
:1001D000F3CFDBFF0301005101110FE129EC68F0BF
:1001E00006C000F307C001F3FF0E03010017070E5E
:1001F0000117000E0027040E01233C0EE66EE66A8E
:10020000E66AAF0EE66E020EE66EC9ECA5F0146E5D
:10021000050EE15E1450010EDB6ADF6ADF50146EDA
:10022000156A030E145C000E155801E3BAD1DFCF36
:10023000AFF30E0E146E540E156E010E166EDFCF58
:1002400017F0186A196A060E0C6E0D6A0E6A17C04E
:1002500007F018C008F019C009F08CECA8F004C031
:1002600017F005C018F006C019F014501724F36EEB
:1002700015501820F46E16501920F86EF4CFF7FFC1
:10028000F3CFF6FFF62A000EF722F8220800080E38
:10029000F5CFDBFF0E0E146E540E156E010E166EAA
:1002A000DFCF17F0186A196A060E0C6E0D6A0E6A17
:1002B00017C007F018C008F019C009F08CECA8F0BE
:1002C00004C017F005C018F006C019F01450172428
:1002D000F36E15501820F46E16501920F86EF4CFF6
:1002E000F7FFF3CFF6FF020EF626000EF722F822F4
:1002F0000900020EF5CFDBFF0A00030EF5CFDBFF8E
:100300000E0E146E540E156E010E166EDFCF17F022
:10031000186A196A060E0C6E0D6A0E6A17C007F08D
:1003200018C008F019C009F08CECA8F004C017F050
:1003300005C018F006C019F014501724F36E1550BC
:100340001820F46E16501920F86EF4CFF7FFF3CF93
:10035000F6FF040EF626000EF722F8220900040E1E
:10036000F5CFDBFF0A00050EF5CFDBFF080EDB50F3
:1003700001E016D1090EDBCF08F00A0EDBCF09F041
:10038000060E08C0DBFF070E09C0DBFF020EDBCF45
:1003900016F0030EDBCF17F0250E1626000E1722DF
:1003A000010E1626000E1722040EDB501624146EC2
:1003B000050EDB501720156E010E1426000E1522B7
:1003C000D950090FE96EDACFEAFF1450EE26155026
:1003D000ED22090EDBCF14F00A0EDBCF15F0166A02
:1003E000176AD880FE0E14541E0E1554000E1654B3
:1003F000000E175401E2EDD70301AF511C0DF3CFEE
:10040000E9FFF4CFEAFF000EE9260F0EEA221B0EE9
:10041000E926000EEA22080EDBCFEFFF250EE76E7D
:10042000060EDBCF14F0070EDBCF15F0E7501426D5
:10043000000E1522AF511C0DF3CFE9FFF4CFEAFFF8
:10044000000EE9260F0EEA2214C0EEFF15C0EDFFE4
:10045000020EDBCF16F0030EDBCF17F0AF511C0DF1
:10046000F3CFE9FFF4CFEAFF000EE9260F0EEA22F0
:100470001650EE24146E1750EE20156E010E142641
:10048000000E1522AF511C0DF3CFE9FFF4CFEAFFA8
:10049000000EE9260F0EEA22020EE926000EEA22DD
:1004A00014C0EEFF15C0EDFF040EDBCF16F0050EF5
:1004B000DBCF17F0AF511C0DF3CFE9FFF4CFEAFF0C
:1004C000000EE9260F0EEA22020EE926000EEA22AD
:1004D0001650EE24146E1750EE20156EAF511C0D01
:1004E000F3CFE9FFF4CFEAFF000EE9260F0EEA2270
:1004F000040EE926000EEA2214C0EEFF15C0EDFF3F
:10050000AF511C0DF3CFE9FFF4CFEAFF000EE9264F
:100510000F0EEA22160EE926000EEA220D0EEF6EED
:10052000AF511C0DF3CFE9FFF4CFEAFF000EE9262F
:100530000F0EEA22170EE926000EEA22EF96C4DD1E
:100540000E0E146E540E156E010E166EDFCF17F0E0
:10055000186A196A060E0C6E0D6A0E6A17C007F04B
:1005600018C008F019C009F08CECA8F004C017F00E
:1005700005C018F006C019F014501724F36E15507A
:100580001820F46E16501920F86EF4CFF7FFF3CF51
:10059000F6FF0800F5CF26F3FBEC2DF0DF2A3ED660
:1005A000FFD70B0EE15C02E2E16AE552E16EE55233
:1005B000E7CFD9FF1200D9CFE6FFE1CFD9FFE6524E
:1005C000DF6ADF50146E156A030E145C000E1558B6
:1005D00001E39BD1DFCFAFF30301AF511C0DF3CF8C
:1005E000E9FFF4CFEAFF000EE9260F0EEA22160E0D
:1005F000E926000EEA22EF500D0801E084D164DD07
:10060000F70EDB500301265D01E07DD1FA0EDB50D1
:100610003BE1F80EDBCF12F3F90EDBCF13F303014E
:10062000AF511C0DF3CFE9FFF4CFEAFF000EE9262E
:100630000F0EEA22170EE926000EEA22EF86AF51CE
:100640001C0DF3CFE9FFF4CFEAFF000EE9260F0EF1
:10065000EA22160EE926000EEA22040EEF6EAF51D2
:100660001C0DF3CFE9FFF4CFEAFF000EE9260F0ED1
:10067000EA22190EE926000EEA22F80EDBCFEEFF81
:10068000F90EDBCFEDFF3DD1000E005D040E0159E8
:1006900006E3880ED8800055130E015503E2006B67
:1006A000040E016F00C312F301C313F3002B000EFD
:1006B0000123F80EDBCF10F3F90EDBCF11F3E9ECD9
:1006C000A7F006C014F007C015F008C016F009C066
:1006D00017F00301AF511C0DF3CFE9FFF4CFEAFF90
:1006E000000EE9260F0EEA220E0EE926000EEA227F
:1006F00014C0EEFF15C0EEFF16C0EEFF17C0EEFFF0
:10070000AF511C0DF3CFE9FFF4CFEAFF000EE9264D
:100710000F0EEA22170EE926000EEA22EF88FA0EE3
:10072000DB50040A01E184D0070A2DE0020A03E04D
:10073000030A01E0E6D0FB0EDBCF18F3FC0EDBCFA3
:1007400019F3FD0EDBCF1AF3FE0EDBCF1BF3FA0E0F
:10075000DB50020802E0000E01D0010E03012495D7
:10076000E8B024850301AF511C0DF3CFE9FFF4CFAE
:10077000EAFF000EE9260F0EEA22160EE926000E09
:10078000EA22EF6ABED0FB0EDBCF1AF0FC0EDBCF05
:100790001BF0FD0EDB501A24186EFE0EDB501B20E2
:1007A000196EF80EDB501824166EF90EDB50192066
:1007B000176E165003011219146E17501319156E87
:1007C0000301AF511C0DF3CFE9FFF4CFEAFF000E98
:1007D000E9260F0EEA22190EE926000EEA2214C0BD
:1007E000EEFF15C0EDFFFB0EDBCF18F3FC0EDBCFE9
:1007F00019F3FD0EDBCF1AF3FE0EDBCF1BF3030163
:10080000256B270E026F036B046B056B0301AF5161
:100810001C0DF3CFE9FFF4CFEAFF000EE9260F0E1F
:10082000EA22160EE926000EEA22020EEF6E69D0C9
:10083000FB0EDBCFE9FFFC0EDBCFEAFF020EE92661
:10084000000EEA22EECF1AF0EFCF1BF0FB0EDBCF4B
:10085000E9FFFC0EDBCFEAFF1A50EE24186E1B50A6
:10086000EE20196EF80EDB501824166EF90EDB50D0
:100870001920176E165003011219146E1750131910
:10088000156E0301AF511C0DF3CFE9FFF4CFEAFF62
:10089000000EE9260F0EEA22190EE926000EEA22C2
:1008A00014C0EEFF15C0EDFF0A0EE66EE66AFB0E01
:1008B000DBCFE6FFFC0EDBCFE6FF180EE66E030E85
:1008C000E66E7BECA5F0146E060EE15E145003019B
:1008D000AF511C0DF3CFE9FFF4CFEAFF000EE9267C
:1008E0000F0EEA22160EE926000EEA22050EEF6E22
:1008F000010EE66E020EE66ED8EC21F0E552E552EE
:1009000000D0DF5004D0DF2A5CD6FE0E00D0E552C6
:10091000E552E7CFD9FF1200D9CFE6FFE1CFD9FFEB
:10092000FE0EDBCFAFF30301AF511C0DF3CFE9FF98
:10093000F4CFEAFF000EE9260F0EEA22170EE92691
:10094000000EEA22EE52EF50100B12E0AF511C0DD8
:10095000F3CFE9FFF4CFEAFF000EE9260F0EEA22FB
:10096000170EE926000EEA22EE52EF98010E02D091
:10097000000E00D0E552E7CFD9FF1200D9CFE6FF35
:10098000E1CFD9FFFE0EDBCFAFF30301AF511C0D5A
:10099000F3CFE9FFF4CFEAFF000EE9260F0EEA22BB
:1009A000160EE926000EEA22EF50070802E0000EBC
:1009B00001D0010E00D0E552E7CFD9FF1200D9CF08
:1009C000E6FFE1CFD9FFFE0EDBCFAFF30301AF515E
:1009D0001C0DF3CFE9FFF4CFEAFF000EE9260F0E5E
:1009E000EA220A0EE926000EEA22EECF14F0EFCF3B
:1009F00015F0AF511C0DF3CFE9FFF4CFEAFF000E65
:100A0000E9260F0EEA220C0EE926000EEA2214C097
:100A1000EEFF15C0EDFFAF511C0DF3CFE9FFF4CF92
:100A2000EAFF000EE9260F0EEA22160EE926000E56
:100A3000EA22EF50080A64E0010A62E0050A60E079
:100A4000020A4DE0050A31E00D0A15E0010A13E043
:100A5000070A0EE0020A0CE0010A0AE0060A08E0B2
:100A6000040A01E04DD064EC78F0FBEC2DF052D09C
:100A7000FBEC2DF04FD0010EE66E110EE66ED8ECB9
:100A800021F0E552E5520301AF511C0DF3CFE9FF10
:100A9000F4CFEAFF000EE9260F0EEA22160EE92631
:100AA000000EEA22080EEF6E35D0010EE66E110E32
:100AB000E66ED8EC21F0E552E5520301AF511C0D72
:100AC000F3CFE9FFF4CFEAFF000EE9260F0EEA228A
:100AD000160EE926000EEA220C0EEF6E1BD0AF5167
:100AE0001C0DF3CFE9FFF4CFEAFF000EE9260F0E4D
:100AF000EA22160EE926000EEA220D0EEF6E0AD04B
:100B0000E66A140EE66ED8EC21F0E552E552FBECF5
:100B10002DF000D0E552E7CFD9FF1200D9CFE6FF84
:100B2000E1CFD9FFFE0EDBCFAFF364EC00F00A0E8D
:100B3000E66EE66A180EE66E030EE66E270EE66EA9
:100B4000030EE66E7BECA5F0146E060EE15E14500B
:100B500010C331F311C332F3270E146E030E156E5A
:100B600014C0F3FF15C0F4FF00D0E552E7CFD9FF62
:100B70001200D9CFE6FFE1CFD9FFFE0EDBCFAFF3F6
:100B800064EC00F00301AF511C0DF3CFE9FFF4CF8B
:100B9000EAFF000EE9260F0EEA22060EE926000EF5
:100BA000EA22EECF14F0EFCF15F003010E51141826
:100BB00002E10F51151808E0010EE66E100EE66E08
:100BC000D8EC21F0E552E552E552E7CFD9FF12000B
:100BD000D9CFE6FFE1CFD9FFE652FE0EDBCFAFF370
:100BE0000301AF511C0DF3CFE9FFF4CFEAFF000E74
:100BF000E9260F0EEA22160EE926000EEA22EFCFB2
:100C0000DFFF070EDF5C06E00B0EDF5C03E0F36A3C
:100C1000F46AAED0AF511C0DF3CFE9FFF4CFEAFF79
:100C2000000EE9260F0EEA22060EE926000EEA2241
:100C3000EECF14F0EFCF15F0AF511C0DF3CFE9FF5D
:100C4000F4CFEAFF000EE9260F0EEA22080EE9268D
:100C5000000EEA22EECF16F0EFCF17F01650145C1C
:100C60001750155857E3AF511C0DF3CFE9FFF4CFE0
:100C7000EAFF000EE9260F0EEA22020EE926000E18
:100C8000EA22EECF18F0EFCF19F0AF511C0DF3CFE1
:100C9000E9FFF4CFEAFF000EE9260F0EEA22EE503C
:100CA000185C166EEE501958176E1606000E175A7D
:100CB000AF511C0DF3CFE9FFF4CFEAFF000EE92698
:100CC0000F0EEA22060EE926000EEA22EECF1CF0F5
:100CD000EFCF1DF0AF511C0DF3CFE9FFF4CFEAFFCA
:100CE000000EE9260F0EEA22080EE926000EEA227F
:100CF000EE501C5C1A6EEE501D581B6E1A50165C9E
:100D0000146E1B501758156E14C0F3FF15C0F4FF76
:100D10002FD02ED0AF511C0DF3CFE9FFF4CFEAFF57
:100D2000000EE9260F0EEA22080EE926000EEA223E
:100D3000EECF16F0EFCF17F0AF511C0DF3CFE9FF58
:100D4000F4CFEAFF000EE9260F0EEA22060EE9268E
:100D5000000EEA22EE50165C146EEE501758156E17
:100D60001406000E155A14C0F3FF15C0F4FF00D08E
:100D7000E552E552E7CFD9FF1200D9CFE6FFE1CF28
:100D8000D9FF020EE126FE0EDBCFAFF3FE0EDBCF66
:100D9000E6FF1EDFE552F3CFDEFFF4CFDDFFD9CF54
:100DA000E9FFDACFEAFFEE50ED1003E1000E36D195
:100DB0000ED0D9CFE9FFDACFEAFF010EEE1801E13C
:100DC000ED5005E1FE0EDBCFE6FFD3DEE552030179
:100DD000AF511C0DF3CFE9FFF4CFEAFF000EE92677
:100DE0000F0EEA22170EE926000EEA22EE52EF500D
:100DF000010B44E1DECF14F0DDCF15F0AF511C0D37
:100E0000F3CFE9FFF4CFEAFF000EE9260F0EEA2246
:100E1000020EE926000EEA22EECF18F0EFCF19F00D
:100E2000AF511C0DF3CFE9FFF4CFEAFF000EE92626
:100E30000F0EEA22EE50185C166EEE501958176E1F
:100E4000D890173216321450165C1550175816E306
:100E5000FE0EDBCFE6FF8DDEE5520301AF511C0D28
:100E6000F3CFE9FFF4CFEAFF000EE9260F0EEA22E6
:100E7000170EE926000EEA22EE52EF80010EE66E12
:100E8000E66AE66ED950FD0FE66EFF0EDA20E66EDA
:100E9000AF511C0DF3CFE9FFF4CFEAFF000EE926B6
:100EA0000F0EEA221B0EE926000EEA22EF50E66E34
:100EB000AF511C0DF3CFE9FFF4CFEAFF000EE92696
:100EC0000F0EEA22060EE926000EEA22EECFE6FF1A
:100ED000EFCFE6FFF2EC43F0146E080EE15E145023
:100EE0000301AF511C0DF3CFE9FFF4CFEAFF000E71
:100EF000E9260F0EEA22060EE926000EEA22EE2A65
:100F0000ED22EECF14F0EDCF15F0AF511C0DF3CF65
:100F1000E9FFF4CFEAFF000EE9260F0EEA22020EE7
:100F2000E926000EEA22EECF16F0EFCF17F01650AA
:100F3000145C1750155820E3AF511C0DF3CFE9FF97
:100F4000F4CFEAFF000EE9260F0EEA22EECF14F0EE
:100F5000EFCF15F0AF511C0DF3CFE9FFF4CFEAFF4F
:100F6000000EE9260F0EEA22060EE926000EEA22FE
:100F700014C0EEFF15C0EDFFD9CFE9FFDACFEAFFCD
:100F8000010EEE1801E1ED5006E1FE0EDBCFE6FFAB
:100F9000F0DDE55241D0AF511C0DF3CFE9FFF4CFA6
:100FA000EAFF000EE9260F0EEA22170EE926000ED0
:100FB000EA22EF50200B30E1AF511C0DF3CFE9FFD7
:100FC000F4CFEAFF000EE9260F0EEA22170EE926FB
:100FD000000EEA22EF8AF4ECA7F006C014F007C076
:100FE00015F0166A176A060E1426000E1522162230
:100FF00017220301AF511C0DF3CFE9FFF4CFEAFF35
:10100000000EE9260F0EEA22120EE926000EEA2251
:1010100014C0EEFF15C0EDFF010E00D0146E020EDD
:10102000E15C02E2E16AE552E16E1450E552E7CF7D
:10103000D9FF1200D9CFE6FFE1CFD9FF060EE12696
:10104000040EDB6A050EDB6AFE0EDBCFAFF3FE0E8D
:10105000DBCFE6FFBDDDE552020EF3CFDBFF030E73
:10106000F4CFDBFFD950020FE96EDACFEAFFEE5082
:10107000ED1008E1FE0EDBCFE6FF7BDDE552F36A03
:10108000F46AF9D1020EDBCFDEFFDBCFDDFFDBCF71
:1010900014F0030EDBCF15F0FA0EDBCF16F0FB0ECB
:1010A000DBCF17F01450165C1550175805E2FA0EF6
:1010B000DBCFDEFFDBCFDDFF0301AF511C0DF3CF34
:1010C000E9FFF4CFEAFF000EE9260F0EEA22170E21
:1010D000E926000EEA22EE52EF50010B46E1020E25
:1010E000DBCF14F0030EDBCF15F0AF511C0DF3CFA7
:1010F000E9FFF4CFEAFF000EE9260F0EEA22020E06
:10110000E926000EEA22EECF18F0EFCF19F0AF512A
:101110001C0DF3CFE9FFF4CFEAFF000EE9260F0E16
:10112000EA22EE50185C166EEE501958176ED890E1
:10113000173216321450165C1550175816E3FE0E6F
:10114000DBCFE6FF16DDE5520301AF511C0DF3CFF7
:10115000E9FFF4CFEAFF000EE9260F0EEA22170E90
:10116000E926000EEA22EE52EF80DECF16F0DDCF48
:1011700017F0AF511C0DF3CFE9FFF4CFEAFF000EDB
:10118000E9260F0EEA22060EE926000EEA22165084
:10119000EE24146E1750EE20156EAF511C0DF3CFD8
:1011A000E9FFF4CFEAFF000EE9260F0EEA22020E55
:1011B000E926000EEA22EECF18F0EFCF19F0185012
:1011C000145C1950155801E2A1D0AF511C0DF3CF9A
:1011D000E9FFF4CFEAFF000EE9260F0EEA22020E25
:1011E000E926000EEA22EECF16F0EFCF17F0AF514E
:1011F0001C0DF3CFE9FFF4CFEAFF000EE9260F0E36
:10120000EA22060EE926000EEA22EE50165C146E63
:10121000EE501758156E040E14C0DBFF050E15C0F6
:10122000DBFF040EDBCFE6FF050EDBCFE6FF010E92
:10123000E66EFC0EDBCFE6FFFD0EDBCFE6FFAF5127
:101240001C0DF3CFE9FFF4CFEAFF000EE9260F0EE5
:10125000EA221B0EE926000EEA22EF50E66EAF519D
:101260001C0DF3CFE9FFF4CFEAFF000EE9260F0EC5
:10127000EA22060EE926000EEA22EECFE6FFEFCFC5
:10128000E6FFF2EC43F0146E080EE15E1450040E1B
:10129000DBCF14F0050EDBCF15F0D950FC0FE96E53
:1012A000FF0EDA20EA6E1450EE261550ED22040EE1
:1012B000DBCF14F0050EDBCF15F0D9CFE9FFDACF85
:1012C000EAFF1450EE5E1550ED5A0301AF511C0DAC
:1012D000F3CFE9FFF4CFEAFF000EE9260F0EEA2272
:1012E000EECF14F0EFCF15F0AF511C0DF3CFE9FFA7
:1012F000F4CFEAFF000EE9260F0EEA22060EE926D9
:10130000000EEA2214C0EEFF15C0EDFFDECFE6FFAF
:10131000DDCFE6FF010EE66EFC0EDBCFE6FFFD0E35
:10132000DBCFE6FFAF511C0DF3CFE9FFF4CFEAFFAF
:10133000000EE9260F0EEA221B0EE926000EEA2215
:10134000EF50E66EAF511C0DF3CFE9FFF4CFEAFF8B
:10135000000EE9260F0EEA22060EE926000EEA220A
:10136000EECFE6FFEFCFE6FFF2EC43F0146E080E8F
:10137000E15E1450DECF14F0DDCF15F00301AF5164
:101380001C0DF3CFE9FFF4CFEAFF000EE9260F0EA4
:10139000EA22060EE926000EEA221450EE26155027
:1013A000ED22020EDBCF14F0030EDBCF15F0FA0EA8
:1013B000DBCF16F0FB0EDBCF17F01450165C155088
:1013C000175807E3FE0EDBCFE6FFB9EC05F0E55258
:1013D00041D0AF511C0DF3CFE9FFF4CFEAFF000E6F
:1013E000E9260F0EEA22170EE926000EEA22EF5038
:1013F000200B30E1AF511C0DF3CFE9FFF4CFEAFF32
:10140000000EE9260F0EEA22170EE926000EEA2248
:10141000EF8AF4ECA7F006C014F007C015F0166AC6
:10142000176A060E1426000E152216221722030133
:10143000AF511C0DF3CFE9FFF4CFEAFF000EE92610
:101440000F0EEA22120EE926000EEA2214C0EEFF69
:1014500015C0EDFF040EDBCF16F0050EDBCF17F045
:10146000DE501624146EDD501720156E14C0F3FFE5
:1014700015C0F4FF00D0060EE15C02E2E16AE5521D
:10148000E16EE552E7CFD9FF1200D9CFE6FFE1CFF9
:10149000D9FF060EE126040EDB6A050EDB6AFE0E9E
:1014A000DBCFAFF3FE0EDBCFE6FFE8EC05F0E55255
:1014B000020EF3CFDBFF030EF4CFDBFFD950020F98
:1014C000E96EDACFEAFFEE50ED1009E1FE0EDBCF58
:1014D000E6FFB9EC05F0E552F36AF46AFFD10301C7
:1014E000AF511C0DF3CFE9FFF4CFEAFF000EE92660
:1014F0000F0EEA22170EE926000EEA22EE52EF50F6
:10150000010B47E1020EDBCF14F0030EDBCF15F029
:10151000AF511C0DF3CFE9FFF4CFEAFF000EE9262F
:101520000F0EEA22020EE926000EEA22EECF18F094
:10153000EFCF19F0AF511C0DF3CFE9FFF4CFEAFF65
:10154000000EE9260F0EEA22EE50185C166EEE50E1
:101550001958176ED890173216321450165C155061
:10156000175817E3FE0EDBCFE6FFB9EC05F0E552A6
:101570000301AF511C0DF3CFE9FFF4CFEAFF000EDA
:10158000E9260F0EEA22170EE926000EEA22EE5295
:10159000EF80020EDBCFDEFFDBCFDDFFDBCF14F011
:1015A000030EDBCF15F0F90EDBCF16F0FA0EDBCF12
:1015B00017F01450165C1550175805E2F90EDBCFE2
:1015C000DEFFDBCFDDFFDECF16F0DDCF17F0AF5152
:1015D0001C0DF3CFE9FFF4CFEAFF000EE9260F0E52
:1015E000EA22060EE926000EEA221650EE24146EB8
:1015F0001750EE20156EAF511C0DF3CFE9FFF4CF5D
:10160000EAFF000EE9260F0EEA22020EE926000E7E
:10161000EA22EECF18F0EFCF19F01850145C1950F1
:10162000155801E2A5D0AF511C0DF3CFE9FFF4CF5F
:10163000EAFF000EE9260F0EEA22020EE926000E4E
:10164000EA22EECF16F0EFCF17F0AF511C0DF3CF1B
:10165000E9FFF4CFEAFF000EE9260F0EEA22060E9C
:10166000E926000EEA22EE50165C146EEE50175872
:10167000156E040E14C0DBFF050E15C0DBFF040E53
:10168000DBCFE6FF050EDBCFE6FFFB0EDBCFE6FF91
:10169000FC0EDBCFE6FFFD0EDBCFE6FFAF511C0DEE
:1016A000F3CFE9FFF4CFEAFF000EE9260F0EEA229E
:1016B0001B0EE926000EEA22EF50E66EAF511C0D1C
:1016C000F3CFE9FFF4CFEAFF000EE9260F0EEA227E
:1016D000060EE926000EEA22EECFE6FFEFCFE6FF88
:1016E00093EC44F0146E080EE15E1450040EDBCF50
:1016F00014F0050EDBCF15F0166AD950FB0FE96E1A
:10170000FF0EDA20EA6E1450EE261550EE22165027
:10171000EE22040EDBCF14F0050EDBCF15F0D9CF8F
:10172000E9FFDACFEAFF1450EE5E1550ED5A0301DF
:10173000AF511C0DF3CFE9FFF4CFEAFF000EE9260D
:101740000F0EEA22EECF14F0EFCF15F0AF511C0DC3
:10175000F3CFE9FFF4CFEAFF000EE9260F0EEA22ED
:10176000060EE926000EEA2214C0EEFF15C0EDFFBA
:10177000DECFE6FFDDCFE6FFFB0EDBCFE6FFFC0EA4
:10178000DBCFE6FFFD0EDBCFE6FFAF511C0DF3CF45
:10179000E9FFF4CFEAFF000EE9260F0EEA221B0E46
:1017A000E926000EEA22EF50E66EAF511C0DF3CF92
:1017B000E9FFF4CFEAFF000EE9260F0EEA22060E3B
:1017C000E926000EEA22EECFE6FFEFCFE6FF93EC2C
:1017D00044F0146E080EE15E1450DECF14F0DDCF3D
:1017E00015F00301AF511C0DF3CFE9FFF4CFEAFF71
:1017F000000EE9260F0EEA22060EE926000EEA2266
:101800001450EE261550ED22020EDBCF14F0030E1D
:10181000DBCF15F0F90EDBCF16F0FA0EDBCF17F0A9
:101820001450165C1550175807E3FE0EDBCFE6FF89
:10183000B9EC05F0E55241D0AF511C0DF3CFE9FFF3
:10184000F4CFEAFF000EE9260F0EEA22170EE92672
:10185000000EEA22EF50200B30E1AF511C0DF3CF08
:10186000E9FFF4CFEAFF000EE9260F0EEA22170E79
:10187000E926000EEA22EF8AF4ECA7F006C014F085
:1018800007C015F0166A176A060E1426000E1522F8
:10189000162217220301AF511C0DF3CFE9FFF4CF3D
:1018A000EAFF000EE9260F0EEA22120EE926000ECC
:1018B000EA2214C0EEFF15C0EDFF040EDBCF16F0D8
:1018C000050EDBCF17F0DE501624146EDD50172006
:1018D000156E14C0F3FF15C0F4FF00D0060EE15CD6
:1018E00002E2E16AE552E16EE552E7CFD9FF12006C
:1018F000D9CFE6FFE1CFD9FFFC0EDBCF16F0FD0E0E
:10190000DBCF17F016C0E6FF17C0E6FFFC0EDBCFFB
:10191000E6FFFD0EDBCFE6FF32ECA6F0E552E55226
:10192000F3CF18F0F4CF19F018C0E6FF19C0E6FFA6
:10193000FC0EDBCFE6FFFD0EDBCFE6FFFE0EDBCFBE
:10194000E6FF1AEC08F01A6E050EE15E1A50E55239
:10195000E7CF17F0E552E7CF16F01650F324146ED8
:101960001750F420156E14C0F3FF15C0F4FF00D01B
:10197000E552E7CFD9FF1200D9CFE6FFE1CFD9FF7B
:10198000FB0EDBCFE6FFFC0EDBCFE6FFFD0EDBCF71
:10199000E6FF40ECA6F0E552E552E55207C01AF02A
:1019A00008C01BF01AC0E6FF1BC0E6FFFB0EDBCF32
:1019B000E6FFFC0EDBCFE6FFFD0EDBCFE6FFFE0E03
:1019C000DBCFE6FF62DD1C6E060EE15E1C50F3CF3E
:1019D00017F0F4CF18F0196AD950FB0FE96EFF0E1B
:1019E000DA20EA6EEE501724146EEE501820156EB1
:1019F000EE501920166E14C007F015C008F016C07E
:101A000009F000D0E552E7CFD9FF1200D9CFE6FFA9
:101A1000E1CFD9FF040EE126FE0EDBCFAFF30301C9
:101A2000AF511C0DF3CFE9FFF4CFEAFF000EE9261A
:101A30000F0EEA22020EE926000EEA22EECF16F081
:101A4000EFCF17F0AF511C0DF3CFE9FFF4CFEAFF52
:101A5000000EE9260F0EEA22EE50165C146EEE50D0
:101A60001758156E1406000E155A020E14C0DBFF2F
:101A7000030E15C0DBFFFE0EDBCFE6FFE8EC05F042
:101A8000E552F3CFDEFFF4CFDDFF020EDBCF16F021
:101A9000030EDBCF17F0DE50165C146EDD501758C6
:101AA000156E14C0F3FF15C0F4FF040EE15C03E2F1
:101AB00000D0E16AE552E16EE552E7CFD9FF1200AE
:101AC000D9CFE6FFE1CFD9FFFE0EDBCFE6FF3CD852
:101AD000E552F3CF14F0F4CF15F01450151030E0A8
:101AE000FE0EDBCFAFF30301AF511C0DF3CFE9FFC7
:101AF000F4CFEAFF000EE9260F0EEA220A0EE926CD
:101B0000000EEA22EECF14F0EFCF15F0AF511C0D0E
:101B1000F3CFE9FFF4CFEAFF000EE9260F0EEA2229
:101B20000C0EE926000EEA2214C0EEFF15C0EDFFF0
:101B3000010EE66E100EE66ED8EC21F0E552E5528D
:101B4000E552E7CFD9FF1200D9CFE6FFE1CFD9FFA9
:101B5000FE0EDBCFAFF30301AF511C0DF3CFE9FF56
:101B6000F4CFEAFF000EE9260F0EEA220A0EE9265C
:101B7000000EEA22EECF14F0EFCF15F0AF511C0D9E
:101B8000F3CFE9FFF4CFEAFF000EE9260F0EEA22B9
:101B90000C0EE926000EEA22EECF16F0EFCF17F07A
:101BA0001650145C175015582CE3AF511C0DF3CF91
:101BB000E9FFF4CFEAFF000EE9260F0EEA220A0E33
:101BC000E926000EEA22EECF16F0EFCF17F0AF5164
:101BD0001C0DF3CFE9FFF4CFEAFF000EE9260F0E4C
:101BE000EA220C0EE926000EEA22EE50165C146E74
:101BF000EE501758156E14C0F3FF15C0F4FF5CD0FB
:101C00005BD0AF511C0DF3CFE9FFF4CFEAFF000E1C
:101C1000E9260F0EEA22040EE926000EEA22EECF94
:101C200018F0EFCF19F0AF511C0DF3CFE9FFF4CF4F
:101C3000EAFF000EE9260F0EEA220C0EE926000E3E
:101C4000EA22EE50185C166EEE501958176E010E0F
:101C50001626000E1722AF511C0DF3CFE9FFF4CF6B
:101C6000EAFF000EE9260F0EEA220A0EE926000E10
:101C7000EA22EECF1CF0EFCF1DF0AF511C0DF3CFD9
:101C8000E9FFF4CFEAFF000EE9260F0EEA22020E6A
:101C9000E926000EEA22EE501C5C1A6EEE501D582A
:101CA0001B6E16501A24146E17501B20156E14C08C
:101CB000F3FF15C0F4FF00D0E552E7CFD9FF1200C3
:101CC000D9CFE6FFE1CFD9FF020EE126FE0EDBCF32
:101CD000E6FF3ADFE552F3CFDEFFF4CFDDFFD9CFE9
:101CE000E9FFDACFEAFFEE50ED1002E1000EEDD091
:101CF000FE0EDBCFAFF3D950FC0FE96EFF0EDA20FA
:101D0000EA6EEE50ED1034E0010EE66EE66A030175
:101D1000AF511C0DF3CFE9FFF4CFEAFF000EE92627
:101D20000F0EEA221B0EE926000EEA22EF50E66EA5
:101D3000AF511C0DF3CFE9FFF4CFEAFF000EE92607
:101D40000F0EEA220C0EE926000EEA22EECFE6FF85
:101D5000EFCFE6FF010EE66EFC0EDBCFE6FFFD0ED9
:101D6000DBCFE6FFF2EC43F0146E080EE15E145098
:101D70000301AF511C0DF3CFE9FFF4CFEAFF000ED2
:101D8000E9260F0EEA220C0EE926000EEA22EE2AC0
:101D9000ED22EECF14F0EDCF15F0AF511C0DF3CFC7
:101DA000E9FFF4CFEAFF000EE9260F0EEA22040E47
:101DB000E926000EEA22EECF16F0EFCF17F014500E
:101DC000165C1550175824E2AF511C0DF3CFE9FFF4
:101DD000F4CFEAFF000EE9260F0EEA22020EE926F2
:101DE000000EEA22EECF14F0EFCF15F0AF511C0D2C
:101DF000F3CFE9FFF4CFEAFF000EE9260F0EEA2247
:101E00000C0EE926000EEA2214C0EEFF15C0EDFF0D
:101E1000D9CFE9FFDACFEAFF010EEE1801E1ED506C
:101E200011E1AF511C0DF3CFE9FFF4CFEAFF000E33
:101E3000E9260F0EEA22170EE926000EEA22EE52DC
:101E4000EF8441D0AF511C0DF3CFE9FFF4CFEAFF8F
:101E5000000EE9260F0EEA22170EE926000EEA22EE
:101E6000EF50200B30E1AF511C0DF3CFE9FFF4CF61
:101E7000EAFF000EE9260F0EEA22170EE926000EF1
:101E8000EA22EF8AF4ECA7F006C014F007C015F0C0
:101E9000166A176A060E1426000E1522162217223D
:101EA0000301AF511C0DF3CFE9FFF4CFEAFF000EA1
:101EB000E9260F0EEA22120EE926000EEA2214C0CD
:101EC000EEFF15C0EDFF010E00D0146E020EE15CB6
:101ED00002E2E16AE552E16E1450E552E7CFD9FF24
:101EE0001200D9CFE6FFE1CFD9FF040EE126020EA2
:101EF000DB6A030EDB6AFE0EDBCFE6FF25DEE55272
:101F0000F3CFDEFFF4CFDDFFD9CFE9FFDACFEAFF71
:101F1000EE50ED1003E1F36AF46ADFD1FE0EDBCF81
:101F2000AFF3FA0EDBCF14F0FB0EDBCF15F0DECFF4
:101F300016F0DDCF17F01450165C155017580AE252
:101F4000D9CFE9FFDACFEAFFFA0EEECFDBFFFB0EC7
:101F5000EDCFDBFFFA0EDBCF16F0FB0EDBCF17F079
:101F60000301AF511C0DF3CFE9FFF4CFEAFF000EE0
:101F7000E9260F0EEA220C0EE926000EEA22165080
:101F8000EE24146E1750EE20156EAF511C0DF3CFDA
:101F9000E9FFF4CFEAFF000EE9260F0EEA22040E55
:101FA000E926000EEA22EECF18F0EFCF19F0145018
:101FB000185C1550195801E3B4D0AF511C0DF3CF84
:101FC000E9FFF4CFEAFF000EE9260F0EEA22040E25
:101FD000E926000EEA22EECF16F0EFCF17F0AF5150
:101FE0001C0DF3CFE9FFF4CFEAFF000EE9260F0E38
:101FF000EA220C0EE926000EEA22EE50165C146E60
:10200000EE501758156E010E1426000E1522020E02
:1020100014C0DBFF030E15C0DBFFD950FC0FE96EC7
:10202000FF0EDA20EA6EEE50ED1046E0020EDBCF36
:10203000E6FF030EDBCFE6FFAF511C0DF3CFE9FF48
:10204000F4CFEAFF000EE9260F0EEA221B0EE92666
:10205000000EEA22EF50E66EAF511C0DF3CFE9FF00
:10206000F4CFEAFF000EE9260F0EEA220C0EE92655
:10207000000EEA22EECFE6FFEFCFE6FF010EE66E9E
:10208000FC0EDBCFE6FFFD0EDBCFE6FFF2EC43F00C
:10209000146E080EE15E1450020EDBCF14F0030E36
:1020A000DBCF15F0D950FC0FE96EFF0EDA20EA6E97
:1020B0001450EE261550ED22020EDBCF14F0030E65
:1020C000DBCF15F0D950FA0FE96EFF0EDA20EA6E79
:1020D0001450EE5E1550ED5A0301AF511C0DF3CFB5
:1020E000E9FFF4CFEAFF000EE9260F0EEA22020E06
:1020F000E926000EEA22EECF14F0EFCF15F0AF5133
:102100001C0DF3CFE9FFF4CFEAFF000EE9260F0E16
:10211000EA220C0EE926000EEA2214C0EEFF15C0DA
:10212000EDFFD950FC0FE96EFF0EDA20EA6EEE509B
:10213000ED1036E0FA0EDBCFE6FFFB0EDBCFE6FF5D
:10214000AF511C0DF3CFE9FFF4CFEAFF000EE926F3
:102150000F0EEA221B0EE926000EEA22EF50E66E71
:10216000AF511C0DF3CFE9FFF4CFEAFF000EE926D3
:102170000F0EEA220C0EE926000EEA22EECFE6FF51
:10218000EFCFE6FF010EE66EFC0EDBCFE6FFFD0EA5
:10219000DBCFE6FFF2EC43F0146E080EE15E145064
:1021A000FA0EDBCF14F0FB0EDBCF15F00301AF51BD
:1021B0001C0DF3CFE9FFF4CFEAFF000EE9260F0E66
:1021C000EA220C0EE926000EEA221450EE261550E3
:1021D000ED22020EDBCF14F0030EDBCF15F0D95049
:1021E000FA0FE96EFF0EDA20EA6E1450EE26155053
:1021F000ED22DECF16F0DDCF17F0FA0EDB50165CC5
:10220000146EFB0EDB501758156EFA0EDBCF18F06C
:10221000FB0EDBCF19F01450185C1550195811E360
:10222000AF511C0DF3CFE9FFF4CFEAFF000EE92612
:102230000F0EEA22170EE926000EEA22EE52EF8474
:1022400041D0AF511C0DF3CFE9FFF4CFEAFF000EF0
:10225000E9260F0EEA22170EE926000EEA22EF50B9
:10226000200B30E1AF511C0DF3CFE9FFF4CFEAFFB3
:10227000000EE9260F0EEA22170EE926000EEA22CA
:10228000EF8AF4ECA7F006C014F007C015F0166A48
:10229000176A060E1426000E1522162217220301B5
:1022A000AF511C0DF3CFE9FFF4CFEAFF000EE92692
:1022B0000F0EEA22120EE926000EEA2214C0EEFFEB
:1022C00015C0EDFFFA0EDBCF14F0FB0EDBCF15F0DF
:1022D00014C0F3FF15C0F4FF00D0040EE15C02E26D
:1022E000E16AE552E16EE552E7CFD9FF1200D9CF9E
:1022F000E6FFE1CFD9FF040EE126FE0EDBCFAFF300
:102300000301AF511C0DF3CFE9FFF4CFEAFF000E3C
:10231000E9260F0EEA22040EE926000EEA22EECF8D
:1023200016F0EFCF17F0AF511C0DF3CFE9FFF4CF4C
:10233000EAFF000EE9260F0EEA22020EE926000E41
:10234000EA22EE50165C146EEE501758156E020E0F
:1023500014C0DBFF030E15C0DBFFFE0EDBCFE6FF74
:10236000A4EC0DF0E552F3CFDEFFF4CFDDFF020E5B
:10237000DBCF16F0030EDBCF17F0DE50165C146EC9
:10238000DD501758156E14C0F3FF15C0F4FF040E8E
:10239000E15C03E200D0E16AE552E16EE552E7CF8D
:1023A000D9FF1200D9CFE6FFE1CFD9FF300EE126E9
:1023B000D950FA0FE96EFF0EDA20EA6EEE50ED10FA
:1023C00003E1F36AF46A5ED3FE0EDBCFAFF3FE0ED9
:1023D000DBCFE6FFA4EC0DF0E552F3CF16F0F4CF1F
:1023E00017F0F80EDB50165C146EF90EDB50175820
:1023F000156E020E14C0DBFF030E15C0DBFF020ECC
:10240000DBCF14F0030EDBCF15F0FA0EDBCF16F0A6
:10241000FB0EDBCF17F01650145C1750155803E273
:10242000F368F4682FD3D950F60FE96EFF0EDA2067
:10243000EA6EEE50ED101DE0020EDBCF14F0030E3D
:10244000DBCF15F0F60EDBCF16F0F70EDBCF17F073
:102450001450165C155017580CE2F60EDBCF08F03E
:10246000F70EDBCF09F0020E08C0DBFF030E09C038
:10247000DBFFF80EDBCF16F0F90EDBCF17F0030110
:10248000AF511C0DF3CFE9FFF4CFEAFF000EE926B0
:102490000F0EEA220C0EE926000EEA221650EE2458
:1024A000146E1750EE20156E060E14C0DBFF070EDB
:1024B00015C0DBFF060EDBCF14F0070EDBCF15F0E7
:1024C000AF511C0DF3CFE9FFF4CFEAFF000EE92670
:1024D0000F0EEA22040EE926000EEA22EECF16F0D5
:1024E000EFCF17F01450165C1550175833E2AF5168
:1024F0001C0DF3CFE9FFF4CFEAFF000EE9260F0E23
:10250000EA22040EE926000EEA22EECF16F0EFCF03
:1025100017F0AF511C0DF3CFE9FFF4CFEAFF000E27
:10252000E9260F0EEA22020EE926000EEA22EE50FC
:10253000165C146EEE501758156E010E1426000E20
:102540001522D950060FE96EDACFEAFF1450EE5E7D
:102550001550ED5A060EDBCFDEFFDBCFDDFFAF51AE
:102560001C0DF3CFE9FFF4CFEAFF000EE9260F0EB2
:10257000EA22040EE926000EEA22EECF16F0EFCF93
:1025800017F0060EDB50165C146E070EDB50175862
:10259000156E010E1426000E1522040E14C0DBFF6A
:1025A000050E15C0DBFFF80EDBCF08F0F90EDBCF10
:1025B00009F0060E08C0DBFF070E09C0DBFFFA0EAC
:1025C000DBCF08F0FB0EDBCF09F0080E08C0DBFF05
:1025D000090E09C0DBFFFC0EDBCF08F0FD0EDBCFE0
:1025E00009F00A0E08C0DBFF0B0E09C0DBFFFC0E72
:1025F000DBCFE9FFDB2AFD0EDBCFEAFF01E3DB2ABD
:102600000D0EEFCFDBFF0F0EDB6AF50EDB5016E091
:10261000610EF36E0D0EDBCFF4FFF350F45C0EE3AE
:102620000D0EDB507A080AE3E00E146E0D0EDBCFC0
:10263000E7FF1450E7260D0EE7CFDBFF200EF36E09
:102640000E0EF3CFDBFFDBCF14F0040EDBCF15F063
:10265000050EDBCF16F01450155C000E165806E27E
:10266000040EDB50E76E0E0EE7CFDBFF0E0EDBCF66
:1026700014F0020EDBCF15F0030EDBCF16F0145072
:10268000155C000E165806E2020EDB50E76E0E0EC9
:10269000E7CFDBFF0E0EDBCFE6FFE66A0301AF51AB
:1026A0001C0DF3CFE9FFF4CFEAFF000EE9260F0E71
:1026B000EA221B0EE926000EEA22EF50E66EDECF7C
:1026C000E6FFDDCFE6FF010EE66ED950100FE66E95
:1026D000000EDA20E66EF2EC43F0146E080EE15EB6
:1026E00014500E0EDB50DE26000EDD220E0EDB50E7
:1026F000146E156AD950040FE96EDACFEAFF145050
:10270000EE5E1550ED5AD950040FE96EDACFEAFFAC
:10271000EE50ED1017E10301AF511C0DF3CFE9FFAF
:10272000F4CFEAFF000EE9260F0EEA22020EE92698
:10273000000EEA22EECFDEFFEDCFDDFF040EDB68F8
:10274000050EDB68F50EDB5001E1E5D00C0EDB6A0F
:102750000E0EDB50F36E0C0EDBCFF4FFF350F45C87
:1027600001E3D8D0D950100F156EDACF16F00C0E49
:10277000DB500F011524E96E000E1620EA6EEFCF34
:1027800014F0610E145C1FE3D950100F176EDACFEE
:1027900018F00C0EDB501724E96E000E1820EA6EBC
:1027A000EF507A0810E3E00E166ED950100F146E39
:1027B000DACF15F00C0EDB501424E96E000E152054
:1027C000EA6E1650EF26D950100F146EDACF15F0BE
:1027D0000C0EDB501424E96E000E1520EA6EEF504B
:1027E000F36E0D0EDB50F35C53E1FA0EDB06DBCF2C
:1027F00014F0FB0E01E2DB06DBCF15F014501510D0
:102800001FE1060EDBCF18F0070EDBCF19F0080E24
:10281000DB50185C166E090EDB501958176E0C0E43
:10282000DB5000011624146E000E1720156E010EE9
:102830001426000E152214C0F3FF15C0F4FF22D198
:10284000FC0EDBCFE9FFDB2AFD0EDBCFEAFF01E365
:10285000DB2A0D0EEFCFDBFF010EF36E0F0EF3CF71
:10286000DBFF610EF36E0D0EDBCFF4FFF350F45C73
:102870000EE30D0EDB507A080AE3E00E146E0D0E27
:10288000DBCFE7FF1450E7260D0EE7CFDBFF3FD08D
:10289000080EDBCF08F0090EDBCF09F0FA0E08C0F6
:1028A000DBFFFB0E09C0DBFF0F0EDB5030E00A0E32
:1028B000DBCF08F00B0EDBCF09F0FC0E08C0DBFF0E
:1028C000FD0E09C0DBFFFC0EDBCFE9FFDB2AFD0EAE
:1028D000DBCFEAFF01E3DB2A0D0EEFCFDBFF610E5A
:1028E000F36E0D0EDBCFF4FFF350F45C0EE30D0E30
:1028F000DB507A080AE3E00E146E0D0EDBCFE7FF23
:102900001450E7260D0EE7CFDBFF0F0EDB6A0C0E2F
:10291000DB2A1ED788D00C0EDB6A0E0EDB50F36E5E
:102920000C0EDBCFF4FFF350F45C01E37CD0D95004
:10293000100F146EDACF15F00C0EDB500F011424BB
:10294000E96E000E1520EA6EEF50F36E0D0EDB50AF
:10295000F35C3DE1FA0EDB06DBCF14F0FB0E01E287
:10296000DB06DBCF15F0145015101FE1060EDBCF90
:1029700018F0070EDBCF19F0080EDB50185C166E4E
:10298000090EDB501958176E0C0EDB50000116248F
:10299000146E000E1720156E010E1426000E15225F
:1029A00014C0F3FF15C0F4FF6DD0FC0EDBCFE9FFC0
:1029B000DB2AFD0EDBCFEAFF01E3DB2A0D0EEFCFB2
:1029C000DBFF010EF36E0F0EF3CFDBFF29D0080EF5
:1029D000DBCF08F0090EDBCF09F0FA0E08C0DBFFF1
:1029E000FB0E09C0DBFF0F0EDB501AE00A0EDBCF37
:1029F00008F00B0EDBCF09F0FC0E08C0DBFFFD0E6C
:102A000009C0DBFFFC0EDBCFE9FFDB2AFD0EDBCFCD
:102A1000EAFF01E3DB2A0D0EEFCFDBFF0F0EDB6ACF
:102A20000C0EDB2A7AD70E0EDB50146E156AD950C5
:102A3000020FE96EDACFEAFF1450EE5E1550ED5A40
:102A4000020EDBCF14F0030EDBCF15F0FA0EDBCF56
:102A500016F0FB0EDBCF17F01650145C175015580C
:102A600003E2F368F4680ED00E0EDB50146E156AA4
:102A7000D950060FE96EDACFEAFF1450EE26155052
:102A8000ED22DCD5300EE15C02E2E16AE552E16E56
:102A9000E552E7CFD9FF1200D9CFE6FFE1CFD9FF4A
:102AA000310EE126D950F90FE96EFF0EDA20EA6EF9
:102AB000EE50ED1003E1F36AF46A8DD3FE0EDBCF26
:102AC000AFF3FE0EDBCFE6FFA4EC0DF0E552F3CF43
:102AD00016F0F4CF17F0F70EDB50165C146EF80EFC
:102AE000DB501758156E020E14C0DBFF030E15C025
:102AF000DBFF020EDBCF14F0030EDBCF15F0F90E77
:102B0000DBCF16F0FA0EDBCF17F01650145C17501F
:102B1000155803E2F368F4685ED3D950F50FE96EF7
:102B2000FF0EDA20EA6EEE50ED101DE0020EDBCF54
:102B300014F0030EDBCF15F0F50EDBCF16F0F60E1A
:102B4000DBCF17F01450165C155017580CE2F50E39
:102B5000DBCF08F0F60EDBCF09F0020E08C0DBFF7A
:102B6000030E09C0DBFFF70EDBCF16F0F80EDBCF4C
:102B700017F00301AF511C0DF3CFE9FFF4CFEAFFCB
:102B8000000EE9260F0EEA220C0EE926000EEA22BC
:102B90001650EE24146E1750EE20156E060E14C05B
:102BA000DBFF070E15C0DBFF060EDBCF14F0070EB0
:102BB000DBCF15F0AF511C0DF3CFE9FFF4CFEAFFE7
:102BC000000EE9260F0EEA22040EE926000EEA2284
:102BD000EECF16F0EFCF17F01450165C15501758C3
:102BE00033E2AF511C0DF3CFE9FFF4CFEAFF000E43
:102BF000E9260F0EEA22040EE926000EEA22EECFA5
:102C000016F0EFCF17F0AF511C0DF3CFE9FFF4CF63
:102C1000EAFF000EE9260F0EEA22020EE926000E58
:102C2000EA22EE50165C146EEE501758156E010E27
:102C30001426000E1522D950060FE96EDACFEAFFEE
:102C40001450EE5E1550ED5A060EDBCFDEFFDBCFE3
:102C5000DDFFAF511C0DF3CFE9FFF4CFEAFF000E0B
:102C6000E9260F0EEA22040EE926000EEA22EECF34
:102C700016F0EFCF17F0060EDB50165C146E070E41
:102C8000DB501758156E010E1426000E1522040E87
:102C900014C0DBFF050E15C0DBFFF70EDBCF08F01D
:102CA000F80EDBCF09F0060E08C0DBFF070E09C0E7
:102CB000DBFFF90EDBCF08F0FA0EDBCF09F0080ED0
:102CC00008C0DBFF090E09C0DBFFD950FB0FE96E1E
:102CD000FF0EDA20EA6E0A0EEECFDBFF0B0EEECF10
:102CE000DBFF0C0EEECFDBFFD950FB0FE96EFF0EC2
:102CF000DA20EA6EEFCFF6FFEE2AEFCFF7FF000EF5
:102D0000EE22EFCFF8FFEE2208000E0EF5CFDBFF2C
:102D1000100EDB6AF40EDB5016E0610EF36E0E0E41
:102D2000DBCFF4FFF350F45C0EE30E0EDB507A08B9
:102D30000AE3E00E146E0E0EDBCFE7FF1450E72619
:102D40000E0EE7CFDBFF200EF36E0F0EF3CFDBFF8F
:102D5000DBCF14F0040EDBCF15F0050EDBCF16F041
:102D60001450155C000E165806E2040EDB50E76E98
:102D70000F0EE7CFDBFF0F0EDBCF14F0020EDBCF21
:102D800015F0030EDBCF16F01450155C000E16582C
:102D900006E2020EDB50E76E0F0EE7CFDBFF0F0EF1
:102DA000DBCFE6FFE66A0301AF511C0DF3CFE9FF6D
:102DB000F4CFEAFF000EE9260F0EEA221B0EE926E9
:102DC000000EEA22EF50E66EDECFE6FFDDCFE6FF33
:102DD000010EE66ED950110FE66E000EDA20E66E97
:102DE000F2EC43F0146E080EE15E14500F0EDB504F
:102DF000DE26000EDD220F0EDB50146E156AD95050
:102E0000040FE96EDACFEAFF1450EE5E1550ED5A6A
:102E1000D950040FE96EDACFEAFFEE50ED1017E15A
:102E20000301AF511C0DF3CFE9FFF4CFEAFF000E11
:102E3000E9260F0EEA22020EE926000EEA22EECF64
:102E4000DEFFEDCFDDFF040EDB68050EDB68F40E60
:102E5000DB5001E1F7D00D0EDB6A0F0EDB50F36E95
:102E60000D0EDBCFF4FFF350F45C01E3EAD0D95050
:102E7000110F156EDACF16F00D0EDB500F01152471
:102E8000E96E000E1620EA6EEFCF14F0610E145CAE
:102E90001FE3D950110F176EDACF18F00D0EDB506B
:102EA0001724E96E000E1820EA6EEF507A0810E33E
:102EB000E00E166ED950110F146EDACF15F00D0E0C
:102EC000DB501424E96E000E1520EA6E1650EF2632
:102ED000D950110F146EDACF15F00D0EDB501424FB
:102EE000E96E000E1520EA6EEF50F36E0E0EDB5009
:102EF000F35C5BE1F90EDB06DBCF14F0FA0E01E2C6
:102F0000DB06DBCF15F0145015101FE1060EDBCFEA
:102F100018F0070EDBCF19F0080EDB50185C166EA8
:102F2000090EDB501958176E0D0EDB5000011624E8
:102F3000146E000E1720156E010E1426000E1522B9
:102F400014C0F3FF15C0F4FF46D1D950FB0FE96E52
:102F5000FF0EDA20EA6EEFCFF6FFEE2AEFCFF7FF93
:102F6000000EEE22EFCFF8FFEE2208000E0EF5CF96
:102F7000DBFF010EF36E100EF3CFDBFF610EF36E7D
:102F80000E0EDBCFF4FFF350F45C0EE30E0EDB50BD
:102F90007A080AE3E00E146E0E0EDBCFE7FF145042
:102FA000E7260E0EE7CFDBFF49D0080EDBCF08F097
:102FB000090EDBCF09F0F90E08C0DBFFFA0E09C0DD
:102FC000DBFF100EDB503AE0D9500A0FE96EDACF82
:102FD000EAFFFB0EEECFDBFFFC0EEECFDBFFFD0EBC
:102FE000EECFDBFFD950FB0FE96EFF0EDA20EA6E61
:102FF000EFCFF6FFEE2AEFCFF7FF000EEE22EFCF76
:10300000F8FFEE2208000E0EF5CFDBFF610EF36E27
:103010000E0EDBCFF4FFF350F45C0EE30E0EDB502C
:103020007A080AE3E00E146E0E0EDBCFE7FF1450B1
:10303000E7260E0EE7CFDBFF100EDB6A0D0EDB2A54
:103040000CD79AD00D0EDB6A0F0EDB50F36E0D0E0F
:10305000DBCFF4FFF350F45C01E38ED0D950110FB5
:10306000146EDACF15F00D0EDB500F011424E96E4B
:10307000000E1520EA6EEF50F36E0E0EDB50F35C7F
:1030800045E1F90EDB06DBCF14F0FA0E01E2DB06B8
:10309000DBCF15F0145015101FE1060EDBCF18F032
:1030A000070EDBCF19F0080EDB50185C166E090E08
:1030B000DB501958176E0D0EDB5000011624146EEC
:1030C000000E1720156E010E1426000E152214C0D6
:1030D000F3FF15C0F4FF7FD0D950FB0FE96EFF0E50
:1030E000DA20EA6EEFCFF6FFEE2AEFCFF7FF000E01
:1030F000EE22EFCFF8FFEE2208000E0EF5CFDBFF39
:10310000010EF36E100EF3CFDBFF33D0080EDBCFD2
:1031100008F0090EDBCF09F0F90E08C0DBFFFA0E4C
:1031200009C0DBFF100EDB5024E0D9500A0FE96E16
:10313000DACFEAFFFB0EEECFDBFFFC0EEECFDBFFBC
:10314000FD0EEECFDBFFD950FB0FE96EFF0EDA204C
:10315000EA6EEFCFF6FFEE2AEFCFF7FF000EEE227A
:10316000EFCFF8FFEE2208000E0EF5CFDBFF100EBA
:10317000DB6A0D0EDB2A68D70F0EDB50146E156A62
:10318000D950020FE96EDACFEAFF1450EE5E155007
:10319000ED5A020EDBCF14F0030EDBCF15F0F90E63
:1031A000DBCF16F0FA0EDBCF17F01650145C175079
:1031B000155803E2F368F4680ED00F0EDB50146E5E
:1031C000156AD950060FE96EDACFEAFF1450EE26E1
:1031D0001550ED22B8D5310EE15C02E2E16AE5520C
:1031E000E16EE552E7CFD9FF1200D9CFE6FFE1CF7C
:1031F000D9FFF80EDBCFE6FFF90EDBCFE6FFFA0EC4
:10320000DBCFE6FFFB0EDBCFE6FFFC0EDBCFE6FFFE
:10321000010EE66EE66AD950FD0FE66EFF0EDA206B
:10322000E66EFE0EDBCFE6FFD2EC11F0146E0A0E56
:10323000E15E145000D0E552E7CFD9FF1200D9CF9C
:10324000E6FFE1CFD9FF0A0EE126DF6ADF50146EF8
:10325000156A030E145C000E155802E306EF20F009
:10326000DFCFAFF3030EDB6A010EDB6A020EDB6A0F
:103270000301AF511C0DF3CFE9FFF4CFEAFF000EBD
:10328000E9260F0EEA22170EE926000EEA22EE5278
:10329000EF50020B12E1AF511C0DF3CFE9FFF4CF59
:1032A000EAFF000EE9260F0EEA22170EE926000EAD
:1032B000EA22EE52EF50040B21E0CFEC7FF0000940
:1032C0001DE0100EF36E030EF3CFDBFF0301AF51D1
:1032D0001C0DF3CFE9FFF4CFEAFF000EE9260F0E35
:1032E000EA22170EE926000EEA22EE52EF50040BF6
:1032F00001E0010EE76E010EE7CFDBFF0301AF51E6
:103300001C0DF3CFE9FFF4CFEAFF000EE9260F0E04
:10331000EA22170EE926000EEA22EF50200B30E0D9
:10332000AF511C0DF3CFE9FFF4CFEAFF000EE92601
:103330000F0EEA22120EE926000EEA22EECF16F058
:10334000EFCF17F016C0E6FF17C0E6FFF4ECA7F0CA
:10335000E552E7CF17F0E552E7CF16F00650165CBE
:10336000146E07501758156E153404E214500008F7
:10337000000E155405E3100EF36E030EF3CFDBFFC2
:103380000301AF511C0DF3CFE9FFF4CFEAFF000EAC
:10339000E9260F0EEA22170EE926000EEA22EF5068
:1033A000400B31E0AF511C0DF3CFE9FFF4CFEAFF42
:1033B000000EE9260F0EEA22140EE926000EEA227C
:1033C000EECF16F0EFCF17F016C0E6FF17C0E6FFFE
:1033D000F4ECA7F0E552E7CF17F0E552E7CF16F08F
:1033E00000010650165C146E07501758156E153400
:1033F00004E214500008000E155405E3100EF36E9D
:10340000030EF3CFDBFF0301AF511C0DF3CFE9FF38
:10341000F4CFEAFF000EE9260F0EEA22160EE92687
:10342000000EEA22EF500B0842E1AF511C0DF3CF22
:10343000E9FFF4CFEAFF000EE9260F0EEA22140E90
:10344000E926000EEA22EECF16F0EFCF17F016C0F5
:10345000E6FF17C0E6FFF4ECA7F0E552E7CF17F060
:10346000E552E7CF16F000010650165C146E0750C7
:103470001758156E153404E214500008000E155448
:1034800016E3110EF36E030EF3CFDBFF0301AF5112
:103490001C0DF3CFE9FFF4CFEAFF000EE9260F0E73
:1034A000EA22160EE926000EEA220C0EEF6E030148
:1034B000AF511C0DF3CFE9FFF4CFEAFF000EE92670
:1034C0000F0EEA22160EE926000EEA22EF5004083B
:1034D00001E063D1040EDB6A050EDB6A040EDBCF6C
:1034E00014F0050EDBCF15F0030E145C000E15581A
:1034F00001E353D1040EDBCFE9FF050EDBCFEAFF7A
:10350000140EEA02F3CFEAFFE902F3CFE9FFF45029
:10351000EA26AF0EE926020EEA22100EE926000E78
:10352000EA22EE50ED1001E138D1040EDBCFE9FFC5
:10353000050EDBCFEAFF140EEA02F3CFEAFFE90241
:10354000F3CFE9FFF450EA26AF0EE926020EEA2295
:10355000100EE926000EEA22EECF14F0EFCF15F0A0
:103560000301AF511C0DF3CFE9FFF4CFEAFF000ECA
:10357000E9260F0EEA22190EE926000EEA22EECF06
:1035800016F0EFCF17F000011650141802E1175093
:10359000151801E0FCD064EC00F00A0EE66EE66A55
:1035A000040EDBCFE9FF050EDBCFEAFF140EEA02C3
:1035B000F3CFEAFFE902F3CFE9FFF450EA26AF0EBA
:1035C000E926020EEA22E9CF14F0EACF15F014C082
:1035D000E6FF15C0E6FF180EE66E030EE66E7BEC06
:1035E000A5F0166E060EE15E1650040EDBCFE9FF65
:1035F000050EDBCFEAFF140EEA02F3CFEAFFE90281
:10360000F3CFE9FFF450EA26AF0EE926020EEA22D4
:103610000A0EE926000EEA22EECF10F3EDCF11F3E9
:10362000040EDBCFE9FF050EDBCFEAFF140EEA0242
:10363000F3CFEAFFE902F3CFE9FFF450EA26AF0E39
:10364000E926020EEA220C0EE926000EEA22EECF4F
:103650000AF3EECF0BF3EECF0CF3EFCF0DF3030134
:103660000A2B0B230C230D231A511825186E1B51FE
:103670001921196E18501025166E19501121176E48
:1036800016501219146E17501319156E0301AF510D
:103690001C0DF3CFE9FFF4CFEAFF000EE9260F0E71
:1036A000EA22190EE926000EEA2214C0EEFF15C028
:1036B000EDFF120EF36E030EF3CFDBFFAF511C0DC7
:1036C000F3CFE9FFF4CFEAFF000EE9260F0EEA225E
:1036D000160EE926000EEA22060EEF6E040EDBCF70
:1036E00014F0050EDBCF15F0020ED8801456000E34
:1036F0001556140E1502F3CF15F01402F3CF14F083
:10370000F450152614C0E6FF15C0E6FF010EE66E64
:10371000E76E040EDBCF16F0050EDBCF17F0E75097
:103720001626000E1722140E1702F3CF17F01602FA
:10373000F3CF16F0F4501726AF0E1626020E1722FE
:1037400016C0E6FF17C0E6FF010EE66E040EDBCFE3
:1037500018F0050EDBCF19F0140E1902F3CF19F093
:103760001802F3CF18F0F4501926AF0E1826020EE7
:10377000192218C0E6FF19C0E6FFF2EC43F01A6EFA
:10378000080EE15E1A500201E76BE86B06D0040EEA
:10379000DB2A050E01E3DB2AA1D6030EDB500EE087
:1037A000010EDB5002E0000E01D0010EE66E030EAA
:1037B000DBCFE6FFD8EC21F0E552E5520301AF5133
:1037C0001C0DF3CFE9FFF4CFEAFF000EE9260F0E40
:1037D000EA22170EE926000EEA22EF50100B01E054
:1037E000CBD0AF511C0DF3CFE9FFF4CFEAFF000EB1
:1037F000E9260F0EEA22160EE926000EEA22EF5005
:10380000070801E0B8D0AF511C0DF3CFE9FFF4CFAA
:10381000EAFF000EE9260F0EEA220E0EE926000E40
:10382000EA22EECF18F0EECF19F0EECF1AF0EFCF7C
:103830001BF018C0E6FF19C0E6FF1AC0E6FF1BC068
:10384000E6FFE9ECA7F0E552E7CF1BF0E552E7CF42
:103850001AF0E552E7CF19F0E552E7CF18F0000172
:103860001850065C146E19500758156E1A500858F7
:10387000166E1B500958176E800E171401E0C3D343
:103880000301AF511C0DF3CFE9FFF4CFEAFF000EA7
:10389000E9260F0EEA22170EE926000EEA22EF5063
:1038A000070B060835E1AF511C0DF3CFE9FFF4CF4C
:1038B000EAFF000EE9260F0EEA22170EE926000E97
:1038C000EA22EF50080B01E0010EE76E030EE7CF8E
:1038D000DBFFDFCFE6FFDFEC04F0E552DFCFE6FFF2
:1038E000DFEC04F0E552030EDB5011E10301AF51B0
:1038F0001C0DF3CFE9FFF4CFEAFF000EE9260F0E0F
:10390000EA22160EE926000EEA220E0EEF6E7BD397
:1039100064EC00F0020EE66E100EE66ED8EC21F0BC
:10392000E552E552E9ECA7F006C014F007C015F027
:1039300008C016F009C017F0740E1426350E1522B3
:10394000060E1622000E17220301AF511C0DF3CFF5
:10395000E9FFF4CFEAFF000EE9260F0EEA220E0E71
:10396000E926000EEA2214C0EEFF15C0EEFF16C0D5
:10397000EEFF17C0EEFF47D3AF511C0DF3CFE9FFA9
:10398000F4CFEAFF000EE9260F0EEA220E0EE9261A
:10399000000EEA22EECF18F0EECF19F0EECF1AF0BB
:1039A000EFCF1BF018C0E6FF19C0E6FF1AC0E6FF14
:1039B0001BC0E6FFE9ECA7F0E552E7CF1BF0E552AC
:1039C000E7CF1AF0E552E7CF19F0E552E7CF18F04C
:1039D00000011850065C146E19500758156E1A50E5
:1039E0000858166E1B500958176E800E171401E008
:1039F0000AD364EC00F00301AF511C0DF3CFE9FFD3
:103A0000F4CFEAFF000EE9260F0EEA22160EE92691
:103A1000000EEA22EF500C0A01E137D2060A01E15A
:103A20001CD2030A01E10ED2010A01E1F3D10F0A0F
:103A300001E1CCD10C0A01E1C9D10D0A01E196D115
:103A4000030A01E18AD1060A01E101D1010A01E17B
:103A5000CBD0030A34E0010A01E02FD25BEC78F00E
:103A600000092CE00301AF511C0DF3CFE9FFF4CFA7
:103A7000EAFF000EE9260F0EEA22160EE926000ED6
:103A8000EA22010EEF6E030124A50ED0E66E18C3E4
:103A9000E6FF19C3E6FF1AC3E6FFA7EC78F0E5528C
:103AA000E552E552E5520AD0E66E18C3E6FF19C3A7
:103AB000E6FF78EC78F0E552E552E552FED1D950B8
:103AC000060FE66E000EDA20E66EDBEC78F0E552CB
:103AD000E552000901E187D064EC78F000094BE081
:103AE000060EDBCF18F3070EDBCF19F3080EDBCF82
:103AF0001AF3090EDBCF1BF30301AF511C0DF3CFFB
:103B0000E9FFF4CFEAFF000EE9260F0EEA22160EB7
:103B1000E926000EEA22020EEF6E03011A51182563
:103B2000186E1B511921196E18501025166E195058
:103B30001121176E16501219146E17501319156EA5
:103B40000301AF511C0DF3CFE9FFF4CFEAFF000EE4
:103B5000E9260F0EEA22190EE926000EEA2214C009
:103B6000EEFF15C0EDFF0301256B270E026F036BFF
:103B7000046B056B38D0E9ECA7F006C014F007C061
:103B800015F008C016F009C017F0740E1426350E93
:103B90001522060E1622000E17220301AF511C0D2E
:103BA000F3CFE9FFF4CFEAFF000EE9260F0EEA2279
:103BB0000E0EE926000EEA2214C0EEFF15C0EEFF3D
:103BC00016C0EEFF17C0EEFFAF511C0DF3CFE9FF9B
:103BD000F4CFEAFF000EE9260F0EEA22160EE926C0
:103BE000000EEA22EF6A69D1F4ECA7F006C014F0E7
:103BF00007C015F00301AF511C0DF3CFE9FFF4CF5F
:103C0000EAFF000EE9260F0EEA22120EE926000E48
:103C1000EA2214C0EEFF15C0EDFF180EE66E030E8B
:103C2000E66E7AEC92F0E552E5520301AF511C0DBD
:103C3000F3CFE9FFF4CFEAFF000EE9260F0EEA22E8
:103C4000160EE926000EEA22030EEF6E36D11C0E88
:103C5000E66E030EE66E180EE66E030EE66EE7ECF9
:103C600092F0E552E552E552E55200095DE10301AB
:103C7000AF511C0DF3CFE9FFF4CFEAFF000EE926A8
:103C80000F0EEA22120EE926000EEA22EECF18F0FD
:103C9000EFCF19F01A6A1B6A18C0E6FF19C0E6FFD9
:103CA0001AC0E6FF1BC0E6FFF4ECA7F0E552E7CF31
:103CB0001BF0E552E7CF1AF0E552E7CF19F0E552D5
:103CC000E7CF18F000011850065C146E1950075821
:103CD000156E1A500858166E1B500958176E14505E
:103CE0000301025D15500359165004591750055928
:103CF0001AE2060E255D06E2252BD890023703371F
:103D0000043705370301AF511C0DF3CFE9FFF4CFA2
:103D1000EAFF000EE9260F0EEA22160EE926000E33
:103D2000EA22020EEF6EC9D0020EF36E030EF3CF3D
:103D3000DBFF010EDB6A0301AF511C0DF3CFE9FF7E
:103D4000F4CFEAFF000EE9260F0EEA22160EE9264E
:103D5000000EEA22050EEF6EB0D0020EF36E030ED7
:103D6000F3CFDBFFDE52010EDD6EA7D0020E0301A2
:103D7000255D09E2120EF36E030EF3CFDBFFDE5278
:103D8000010EDD6E22D00301AF511C0DF3CFE9FF10
:103D9000F4CFEAFF000EE9260F0EEA22170EE926FD
:103DA000000EEA22EF50080B0BE0140EF36E030E28
:103DB000F3CFDBFF010EF36E020EF3CFDBFF05D076
:103DC000020EF36E030EF3CFDBFF77D0050E030177
:103DD000255D09E2100EF36E030EF3CFDBFFDE521A
:103DE000010EDD6E16D00301AF511C0DF3CFE9FFBC
:103DF000F4CFEAFF000EE9260F0EEA22160EE9269E
:103E0000000EEA22080EEF6E110EF36E030EF3CFD2
:103E1000DBFF53D0050E0301255D09E2110EF36EA1
:103E2000030EF3CFDBFFDE52010EDD6E0AD0140E5F
:103E3000F36E030EF3CFDBFF010EF36E020EF3CF32
:103E4000DBFF3BD0140EF36E030EF3CFDBFF010E4E
:103E5000F36E020EF3CFDBFF30D0050E0301255DBC
:103E600009E2100EF36E030EF3CFDBFFDE52010EFC
:103E7000DD6E0AD0140EF36E030EF3CFDBFF010EDE
:103E8000F36E020EF3CFDBFF18D0050E0301255DA4
:103E900009E2110EF36E030EF3CFDBFFDE52010ECB
:103EA000DD6E0AD0140EF36E030EF3CFDBFF010EAE
:103EB000F36E020EF3CFDBFF00D0030EDB5001E107
:103EC0009DD0010EDB5001E191D00301252BD8904C
:103ED00002370337043705370301AF511C0DF3CF09
:103EE000E9FFF4CFEAFF000EE9260F0EEA22080EE2
:103EF000E926000EEA220301EE500E5D146EEE502C
:103F00000F59156E166A176A15AE02D01668176833
:103F10001450065F1550075B1650085B1750095B7D
:103F20000301AF511C0DF3CFE9FFF4CFEAFF000E00
:103F3000E9260F0EEA22080EE926000EEA22EECF4D
:103F400014F0EFCF15F0030114500E5D15500F590A
:103F500032E20301AF511C0DF3CFE9FFF4CFEAFFCA
:103F6000000EE9260F0EEA22020EE926000EEA22D2
:103F7000EECF18F0EFCF19F0AF511C0DF3CFE9FFE2
:103F8000F4CFEAFF000EE9260F0EEA22EE50185C8D
:103F9000146EEE501958156E166A176A15AE02D0D7
:103FA0001668176814500301065F1550075B16501A
:103FB000085B1750095B0301AF511C0DF3CFE9FFFC
:103FC000F4CFEAFF000EE9260F0EEA22080EE926DA
:103FD000000EEA22EECF0EF3EDCF0FF3E66A030EEA
:103FE000DBCFE6FFE5D9E552E55208D0010EE66EDB
:103FF000030EDBCFE6FFDCD9E552E552020EDB50C3
:1040000002E0FBEC2DF0DF2A26EF19F0040EDB6A4C
:10401000050EDB6A040EDBCF14F0050EDBCF15F0C6
:10402000030E145C000E155801E3B1D0040EDBCF73
:10403000E9FF050EDBCFEAFF140EEA02F3CFEAFF39
:10404000E902F3CFE9FFF450EA26AF0EE926020EAB
:10405000EA22100EE926000EEA22EE50ED1001E1F0
:1040600096D0040EDBCFE9FF050EDBCFEAFF140E7E
:10407000EA02F3CFEAFFE902F3CFE9FFF450EA26C0
:10408000AF0EE926020EEA22120EE926000EEA22FF
:10409000EECF16F0EFCF17F016C0E6FF17C0E6FF21
:1040A000F4ECA7F0E552E7CF17F0E552E7CF16F0B2
:1040B0001650065C146E17500758156EDC0ED8802B
:1040C0001454010E15545DE2040EDBCF14F0050EFE
:1040D000DBCF15F0020ED8801456000E1556140EC4
:1040E0001502F3CF15F01402F3CF14F0F450152697
:1040F00014C0E6FF15C0E6FF010EE66EE76E040E83
:10410000DBCF16F0050EDBCF17F0E7501626000EBA
:104110001722140E1702F3CF17F01602F3CF16F082
:10412000F4501726AF0E1626020E172216C0E6FF11
:1041300017C0E6FF010EE66E040EDBCF18F0050E89
:10414000DBCF19F0140E1902F3CF19F01802F3CFD8
:1041500018F0F4501926AF0E1826020E192218C0B6
:10416000E6FF19C0E6FFF2EC43F01A6E080EE15EBE
:104170001A500201E76BE86B040EDB06050E01E244
:10418000DB06040EDB2A050E01E3DB2A43D70A0E09
:10419000E15C02E2E16AE552E16EE552E7CFD9FF68
:1041A0001200D9CFE6FFE1CFD9FF250EE126FD0EA3
:1041B000DBCFE9FFFE0EDBCFEAFF140EEECFDBFF15
:1041C000150EEECFDBFF160EEECFDBFF170EEECF98
:1041D000DBFFFB0EDBCFE9FFFC0EDBCFEAFF180EA7
:1041E000EECFDBFF190EEECFDBFF1A0EEECFDBFFBB
:1041F0001B0EEECFDBFF1C0EDB6A060EF36E1D0EF0
:10420000F3CFDBFFF90EDBCF08F0FA0EDBCF09F0BE
:104210001E0E08C0DBFF1F0E09C0DBFF1E0EDBCF2A
:10422000E6FF1F0EDBCFE6FFF6EC6EF0E552E5523F
:104230001E0EF3CFDBFF1F0EF4CFDBFF0C0EE66E7E
:10424000E66AD950140FE66E000EDA20E66E73ECC3
:104250006FF0E552E552E552E552F3CF14F0F4CF9A
:1042600015F0141E151E200E14C0DBFF210E15C004
:10427000DBFFF90EDBCFE6FFFA0EDBCFE6FFBCEC8F
:1042800082F0E552E552220EF3CFDBFF230EF4CF8E
:10429000DBFF200EDBCF14F0210EDBCF15F0220E5A
:1042A000DB50141803E1230EDB50151804E0ECEC8E
:1042B0007FF0010E71D0000EE66EE66AFAEC9EF019
:1042C000E552E552140EE66EE66AD9CFE6FFDACF84
:1042D000E6FFFCEC84F0E552E552E552E552D9CF19
:1042E000E6FFDACFE6FFE3EC2CF0E552E552D950D9
:1042F0000C0FE96EDACFEAFFEF50F00BE842E8422C
:10430000E842E842040DF350146E156A140E145E70
:10431000000E155A240E14C0DBFFDB50166E176A10
:10432000F90EDBCF08F0FA0EDBCF09F01650085C6F
:10433000146E17500958156E140E145E000E155A9F
:10434000F90E14C0DBFFFA0E15C0DBFFFD0EDBCF4C
:10435000E6FFFE0EDBCFE6FFD9CFE6FFDACFE6FFC2
:1043600075EC29F0E552E552E552E552000910E0FE
:10437000F90EDBCFE6FFFA0EDBCFE6FFD9CFE6FF83
:10438000DACFE6FF83EC2FF0E552E552E552E55235
:10439000ECEC7FF0010E00D0146E250EE15C02E221
:1043A000E16AE552E16E1450E552E7CFD9FF120001
:1043B000D9CFE6FFE1CFD9FF2A0EE12664EC00F069
:1043C000FE0EDBA013D00301AF511C0DF3CFE9FFAC
:1043D000F4CFEAFF000EE9260F0EEA22170EE926B7
:1043E000000EEA22EE52EF86FE0EDB900301AF5183
:1043F0001C0DF3CFE9FFF4CFEAFF000EE9260F0E04
:10440000EA22170EE926000EEA22EF9AAF511C0DA0
:10441000F3CFE9FFF4CFEAFF000EE9260F0EEA2200
:10442000170EE926000EEA22EF9CAF511C0DF3CFC8
:10443000E9FFF4CFEAFF000EE9260F0EEA22170E7D
:10444000E926000EEA22EF9EAF511C0DF3CFE9FFE3
:10445000F4CFEAFF000EE9260F0EEA22170EE92636
:10446000000EEA22EE52EF92AF511C0DF3CFE9FF9E
:10447000F4CFEAFF000EE9260F0EEA22170EE92616
:10448000000EEA22EE52EF94AF511C0DF3CFE9FF7C
:10449000F4CFEAFF000EE9260F0EEA22170EE926F6
:1044A000000EEA22EE52EF90CFEC7FF0000901E11E
:1044B000FBD7FE0EDB50060B05E0260EDB6A270E4F
:1044C000DB6AD1D30301AF511C0DF3CFE9FFF4CF69
:1044D000EAFF000EE9260F0EEA22060EE926000E7C
:1044E000EA22EECF14F0EFCF15F003010E511418AD
:1044F00002E10F5115181EE1260EDB6A270EDB6A5A
:104500000301AF511C0DF3CFE9FFF4CFEAFF000E1A
:10451000E9260F0EEA22170EE926000EEA22EE52D5
:10452000EF50080B06E003011451151102E0FE0ED6
:10453000DB8099D30301AF511C0DF3CFE9FFF4CF1A
:10454000EAFF000EE9260F0EEA22060EE926000E0B
:10455000EA22EECF14F0EFCF15F0030114500E5DF8
:1045600015500F5901E344D10301AF511C0DF3CF96
:10457000E9FFF4CFEAFF000EE9260F0EEA22060E4D
:10458000E926000EEA2203010E51EE5C146E0F5173
:10459000EE58156E260E14C0DBFF270E15C0DBFF8C
:1045A000280E14C3DBFF290E15C3DBFF0301AF5137
:1045B0001C0DF3CFE9FFF4CFEAFF000EE9260F0E42
:1045C000EA22080EE926000EEA22EECF14F0EFCF21
:1045D00015F0030114500E5D15500F5920E303012F
:1045E000AF511C0DF3CFE9FFF4CFEAFF000EE9262F
:1045F0000F0EEA22080EE926000EEA220301EE5011
:104600000E5D146EEE500F59156ED950280FE96EDD
:10461000DACFEAFF1450EE5E1550ED5A47D0030191
:10462000AF511C0DF3CFE9FFF4CFEAFF000EE926EE
:104630000F0EEA22020EE926000EEA22EECF18F053
:10464000EFCF19F0AF511C0DF3CFE9FFF4CFEAFF24
:10465000000EE9260F0EEA22EE50185C166EEE50A0
:104660001958176EAF511C0DF3CFE9FFF4CFEAFFD5
:10467000000EE9260F0EEA22080EE926000EEA22B5
:1046800003010E51EE5C1A6E0F51EE581B6E1A505C
:10469000165C146E1B501758156ED950280FE96E12
:1046A000DACFEAFF1450EE5E1550ED5A260EDBCF3E
:1046B00014F0270EDBCF15F0280EDBCF16F0290EF5
:1046C000DBCF17F01450165C155017580CE2280E6B
:1046D000DBCF08F0290EDBCF09F0260E08C0DBFF88
:1046E000270E09C0DBFFD950260FE96EDACFEAFFAB
:1046F000180ED880EE54020EED541BE2180EF36E25
:10470000260EF3CFDBFF020EF36E270EF3CFDBFF97
:104710000301AF511C0DF3CFE9FFF4CFEAFF000E08
:10472000E9260F0EEA22170EE926000EEA22EE52C3
:10473000EF840301AF511C0DF3CFE9FFF4CFEAFF83
:10474000000EE9260F0EEA22170EE926000EEA22D5
:10475000EE52EF50080B1BE0260EDBCF14F0270EB5
:10476000DBCF15F0280EDB50141803E1290EDB50C7
:1047700015180DE0D950260FE96EDACFEAFF180EB2
:10478000EE1802E1020EED1802E0FE0EDB80260EAE
:10479000DBCFE6FF270EDBCFE6FFAF511C0DF3CFDB
:1047A000E9FFF4CFEAFF000EE9260F0EEA221B0E06
:1047B000E926000EEA22EF50E66E0EC3E6FF0FC3B5
:1047C000E6FFE66A290EE66E0F0EE66EF2EC43F0A7
:1047D000146E080EE15E1450260EDBCF08F0270E93
:1047E000DBCF09F0085003010E2709500F233BD2FD
:1047F0000301AF511C0DF3CFE9FFF4CFEAFF000E28
:10480000E9260F0EEA22020EE926000EEA22030133
:104810000E51EE5C146E0F51EE58156E240E14C03E
:10482000DBFF250E15C0DBFF240EDBCF18F0250EB5
:10483000DBCF19F00301AF511C0DF3CFE9FFF4CF2B
:10484000EAFF000EE9260F0EEA22060EE926000E08
:10485000EA221850EE24166E1950EE20176EAF5152
:104860001C0DF3CFE9FFF4CFEAFF000EE9260F0E8F
:10487000EA22EE50165C146EEE501758156E260E96
:1048800014C0DBFF270E15C0DBFF280E14C3DBFFAF
:10489000290E15C3DBFFAF511C0DF3CFE9FFF4CF99
:1048A000EAFF000EE9260F0EEA22080EE926000EA6
:1048B000EA22EECF14F0EFCF15F0030114500E5D95
:1048C00015500F5920E30301AF511C0DF3CFE9FF41
:1048D000F4CFEAFF000EE9260F0EEA22080EE926C1
:1048E000000EEA220301EE500E5D146EEE500F59D9
:1048F000156ED950280FE96EDACFEAFF1450EE5E3C
:104900001550ED5A47D00301AF511C0DF3CFE9FF0D
:10491000F4CFEAFF000EE9260F0EEA22020EE92686
:10492000000EEA22EECF18F0EFCF19F0AF511C0DB8
:10493000F3CFE9FFF4CFEAFF000EE9260F0EEA22DB
:10494000EE50185C166EEE501958176EAF511C0DD4
:10495000F3CFE9FFF4CFEAFF000EE9260F0EEA22BB
:10496000080EE926000EEA2203010E51EE5C1A6ED3
:104970000F51EE581B6E1A50165C146E1B501758D0
:10498000156ED950280FE96EDACFEAFF1450EE5EAB
:104990001550ED5A260EDBCF14F0270EDBCF15F0A5
:1049A000280EDBCF16F0290EDBCF17F01450165C63
:1049B000155017580CE2280EDBCF08F0290EDBCF7C
:1049C00009F0260E08C0DBFF270E09C0DBFFD95017
:1049D000260FE96EDACFEAFF180ED880EE54020EE9
:1049E000ED541BE2180EF36E260EF3CFDBFF020E22
:1049F000F36E270EF3CFDBFF0301AF511C0DF3CF96
:104A0000E9FFF4CFEAFF000EE9260F0EEA22170EA7
:104A1000E926000EEA22EE52EF840301AF511C0D8D
:104A2000F3CFE9FFF4CFEAFF000EE9260F0EEA22EA
:104A3000170EE926000EEA22EE52EF50080B1BE09B
:104A4000260EDBCF14F0270EDBCF15F0280EDB503F
:104A5000141803E1290EDB5015180DE0D950260F6C
:104A6000E96EDACFEAFF180EEE1802E1020EED1839
:104A700002E0FE0EDB80240EDBCF14F0250EDBCF30
:104A800015F0260EDBCF16F0270EDBCF17F01450F3
:104A9000165C155017580CE2260EDBCF08F0270ED7
:104AA000DBCF09F0240E08C0DBFF250E09C0DBFFB9
:104AB000240EDBCFE6FF250EDBCFE6FFAF511C0D4A
:104AC000F3CFE9FFF4CFEAFF000EE9260F0EEA224A
:104AD0001B0EE926000EEA22EF50E66E0EC3E6FF3B
:104AE0000FC3E6FFE66A290EE66E0F0EE66EF2ECE5
:104AF00043F0146E080EE15E1450260EDBCF16F064
:104B0000270EDBCF17F0240EDB50165C146E250E3B
:104B1000DB501758156E240E14C0DBFF250E15C090
:104B2000DBFFD950240FE96EDACFEAFFEE50ED102B
:104B30004EE0240EDBCFE6FF250EDBCFE6FF0301C0
:104B4000AF511C0DF3CFE9FFF4CFEAFF000EE926C9
:104B50000F0EEA221B0EE926000EEA22EF50E66E47
:104B6000AF511C0DF3CFE9FFF4CFEAFF000EE926A9
:104B70000F0EEA22EECFE6FFEFCFE6FFE66AAF5177
:104B80001C0DF3CFE9FFF4CFEAFF000EE9260F0E6C
:104B9000EA22020EE926000EEA2203010E51EE5C23
:104BA000146E0F51EE58156E166A176A290E1426E8
:104BB0000F0E1522000E1622172214C0E6FF15C094
:104BC000E6FFF2EC43F0186E080EE15E1850260E78
:104BD000DBCF08F0270EDBCF09F0085003010E27CA
:104BE00009500F230301AF511C0DF3CFE9FFF4CFA0
:104BF000EAFF000EE9260F0EEA22020EE926000E59
:104C0000EA22EECF14F0EFCF15F0030114500E5D41
:104C100015500F5928E30301AF511C0DF3CFE9FFE5
:104C2000F4CFEAFF000EE9260F0EEA22020EE92673
:104C3000000EEA22EECF16F0EFCF17F0AF511C0DA9
:104C4000F3CFE9FFF4CFEAFF000EE9260F0EEA22C8
:104C5000EE50165C146EEE501758156E145003018A
:104C60000E5F15500F5BD950260FE96EDACFEAFFC1
:104C7000EE50ED1004E1FE0EDB50030B4BE0D9507B
:104C8000260FE96EDACFEAFFEE50ED1002E0FE0EDD
:104C9000DB86FD0EDBA008D00301256BF20E026F50
:104CA0009E0E036F046B056BE9ECA7F00650030141
:104CB0000225146E07500321156E08500421166E4C
:104CC00009500521176E0301AF511C0DF3CFE9FF09
:104CD000F4CFEAFF000EE9260F0EEA220E0EE926B7
:104CE000000EEA2214C0EEFF15C0EEFF16C0EEFF64
:104CF00017C0EEFFAF511C0DF3CFE9FFF4CFEAFF71
:104D0000000EE9260F0EEA22170EE926000EEA220F
:104D1000EF8871D0FD0EDBA22AD00301AF511C0D2C
:104D2000F3CFE9FFF4CFEAFF000EE9260F0EEA22E7
:104D3000170EE926000EEA22EF50070BE82AF36E61
:104D4000F350070BF36EF46EF80EEF14F310EF6EE2
:104D5000F45003010607000E075B085B095B010EB8
:104D6000F36E260EF3CFDBFF270EDB6A44D0030180
:104D7000AF511C0DF3CFE9FFF4CFEAFF000EE92697
:104D80000F0EEA22170EE926000EEA22EF50100B52
:104D900032E0FD0EDBB009D00301255106E0250706
:104DA000D8900533043303330233E9ECA7F00650FF
:104DB00003010225146E07500321156E08500421CB
:104DC000166E09500521176E0301AF511C0DF3CF6C
:104DD000E9FFF4CFEAFF000EE9260F0EEA220E0EDD
:104DE000E926000EEA2214C0EEFF15C0EEFF16C041
:104DF000EEFF17C0EEFF020E12C3DBFF030E13C35C
:104E0000DBFF040E10C3DBFF050E11C3DBFF060E34
:104E100006C3DBFF070E07C3DBFF080E08C3DBFF7B
:104E2000090E09C3DBFF0A0E0AC3DBFF0B0E0BC31F
:104E3000DBFF0C0E0CC3DBFF0D0E0DC3DBFF0F0EF3
:104E4000DB9CDB9E0E0EDB90DB92DB94DB96FE0E92
:104E5000DB50E76E0F0EE7CFDBFF140EDB6A150E9B
:104E6000DB6A260EDBCF14F0270EDBCF15F0000136
:104E70001450030106270001155003010723000EFB
:104E800008230923FE0EDBA21DD0DBB808D00A0ED2
:104E9000DB6A0B0EDB6A0C0EDB6A0D0EDB6A24A3E9
:104EA0000BD0D950060FE96EDACFEAFFEE06000EFE
:104EB000EE5AEE5AEE5A06D0062B000E07230823B0
:104EC00009232483FE0EDBA013D024A10BD0D950DC
:104ED000060FE96EDACFEAFFEE06000EEE5AEE5A42
:104EE000EE5A06D0062B000E07230823092324813F
:104EF0000301AF511C0DF3CFE9FFF4CFEAFF000E21
:104F0000E9260F0EEA220A0EE926000EEA22EECF6B
:104F100014F0EFCF15F0AF511C0DF3CFE9FFF4CF34
:104F2000EAFF000EE9260F0EEA220C0EE926000E1B
:104F3000EA22EECF16F0EFCF17F01650145C1750A0
:104F4000155859E3AF511C0DF3CFE9FFF4CFEAFF39
:104F5000000EE9260F0EEA22040EE926000EEA22D0
:104F6000EECF18F0EFCF19F0AF511C0DF3CFE9FFE2
:104F7000F4CFEAFF000EE9260F0EEA22020EE92620
:104F8000000EEA22EE50185C166EEE501958176E9D
:104F9000AF511C0DF3CFE9FFF4CFEAFF000EE92675
:104FA0000F0EEA220A0EE926000EEA22EECF1CF0CE
:104FB000EFCF1DF0AF511C0DF3CFE9FFF4CFEAFFA7
:104FC000000EE9260F0EEA220C0EE926000EEA2258
:104FD000EE501C5C1A6EEE501D581B6E1A50165C7B
:104FE000146E1B501758156E100E14C0DBFF110EF7
:104FF00015C0DBFF2FD0AF511C0DF3CFE9FFF4CF6D
:10500000EAFF000EE9260F0EEA220C0EE926000E3A
:10501000EA22EECF16F0EFCF17F0AF511C0DF3CF11
:10502000E9FFF4CFEAFF000EE9260F0EEA220A0E8E
:10503000E926000EEA22EE50165C146EEE50175868
:10504000156E1406000E155A100E14C0DBFF110E5B
:1050500015C0DBFF37EC80F0F3CF14F0F4CF15F080
:10506000400E145E000E155A14C0DEFF15C0DDFFA1
:10507000DECF14F0DDCF15F00001800E151402E034
:10508000DE6ADD6A100EDBCF14F0110EDBCF15F0F7
:10509000DECF16F0DDCF17F01450165C1550175800
:1050A0000AE2D9CFE9FFDACFEAFF100EEECFDBFF3D
:1050B000110EEDCFDBFFD950020FE66E000EDA20A5
:1050C000E66EE3EC2CF0E552E552D950260FE96E7E
:1050D000DACFEAFF140EEE26000EED220E0EDB886C
:1050E000DB9ADB8CDB9EFE0EDBA237D0D950260F7D
:1050F000E96EDACFEAFF040EEE26000EED22020E74
:10510000F36E160EF3CFDBFF040EF36E170EF3CF24
:10511000DBFF020EF36E180EF3CFDBFF140EF36EFF
:10512000190EF3CFDBFF010E146ED9500E0FE96E8E
:10513000DACFEAFFEF50F00BE842E842E842E842FB
:1051400014240F0BF36EF46EF346F346F346F34666
:105150000F0EEF14F310EF6EF4501A0E33C3DBFF93
:105160001B0E34C3DBFF1C0E35C3DBFF1D0E36C325
:10517000DBFF1E0E18C3DBFF1F0E19C3DBFF200E63
:105180001AC3DBFF210E1BC3DBFF220EDB6A060EF8
:10519000F36E230EF3CFDBFF260EDBCF08F0270ED6
:1051A000DBCF09F0240E08C0DBFF250E09C0DBFFB2
:1051B000240EDBCFE6FF250EDBCFE6FFF6EC6EF02C
:1051C000E552E552240EF3CFDBFF250EF4CFDBFFD3
:1051D0000C0EE66EE66AD9501A0FE66E000EDA2063
:1051E000E66E73EC6FF0E552E552E552E552F3CF0F
:1051F00014F0F4CF15F0141E151E120E14C0DBFFB0
:10520000130E15C0DBFF010EE66E0F0EE66E15ECF9
:1052100082F0E552E552260EDBCFE6FF270EDBCF0C
:10522000E6FF060EE66E180EE66E030EE66E48EC1E
:105230009EF0146E050EE15E1450140EE66EE66AE2
:10524000D950020FE66E000EDA20E66E59EC85F0BA
:10525000E552E552E552E552FE0EDBA20FD0040EF8
:10526000E66EE66AD950160FE66E000EDA20E66E9C
:1052700059EC85F0E552E552E552E552150EE66E21
:105280000F0EE66E38EC82F0E552E552260EDBCFCB
:10529000E6FF270EDBCFE6FFBCEC82F0E552E552DD
:1052A000F3CFDEFFF4CFDDFF250EE66E0F0EE66EC8
:1052B00015EC82F0E552E552020EE66EE66AD9CFB1
:1052C000E6FFDACFE6FF59EC85F0E552E552E5520C
:1052D000E552BAEC81F02A0EE15C02E2E16AE552A5
:1052E000E16EE552E7CFD9FF1200D9CFE6FFE1CF5B
:1052F000D9FF060EE126FD0EDBCFE9FFFE0EDBCF68
:10530000EAFF020EE926000EEA22EE50ED1002E15D
:10531000000E4DD3DE52FE0EDD6EFB0EDBCFE9FF3D
:10532000FC0EDBCFEAFF020EE926000EEA22EECFEA
:105330001AF0EFCF1BF0FB0EDBCFE9FFFC0EDBCF4B
:10534000EAFF1A50EE24186E1B50EE20196EFD0E67
:10535000DBCFE9FFFE0EDBCFEAFF1850EE24166E1E
:105360001950EE20176EFD0EDBCFE9FFFE0EDBCFEE
:10537000EAFF020EE926000EEA221650EE18146E1D
:105380001750EE18156E020E14C0DBFF030E15C089
:10539000DBFFDF6ADF50146E156A030E145C000E2B
:1053A000155801E3ACD0DFCFAFF30301AF511C0DB3
:1053B000F3CFE9FFF4CFEAFF000EE9260F0EEA2251
:1053C000160EE926000EEA22EF500D0802E195D0F4
:1053D00058D0AF511C0DF3CFE9FFF4CFEAFF000E18
:1053E000E9260F0EEA22160EE926000EEA22EF50F9
:1053F00004082CE1AF511C0DF3CFE9FFF4CFEAFF15
:10540000000EE9260F0EEA22190EE926000EEA2206
:10541000EECF14F0EFCF15F0FD0EDBCFE9FFFE0E5F
:10542000DBCFEAFF020EE926000EEA22EECF16F0ED
:10543000EFCF17F016500001141802E1175015189D
:1054400003E1010EDFCFDBFF58D01BD0AF511C0DA5
:10545000F3CFE9FFF4CFEAFF000EE9260F0EEA22B0
:10546000190EE926000EEA22EECF14F0EFCF15F068
:10547000020EDB50141803E1030EDB50151801E097
:105480003CD064EC00F0FD0EDBCFE9FFFE0EDBCF7D
:10549000EAFF020EE926000EEA22EECF14F0EFCF6B
:1054A00015F003011251141802E11351151825E1EA
:1054B000FD0EDBCFE9FFFE0EDBCFEAFFEECF16F0ED
:1054C000EFCF17F01051161802E11151171815E11E
:1054D000FB0EDBCFE9FFFC0EDBCFEAFFEE50181925
:1054E00009E1EE50191906E1EE501A1903E1EE50E8
:1054F0001B1900E102E1010E5AD2DF2A4BD7010E3F
:10550000DB50FE085AE0010EDBCFAFF364EC00F095
:10551000010EDB50FE0851E00301AF511C0DF3CF2B
:10552000E9FFF4CFEAFF000EE9260F0EEA22190E7A
:10553000E926000EEA22020EDBCFEEFF030EDBCFE0
:10554000EDFF0A0EE66EE66AFB0EDBCFE6FFFC0E11
:10555000DBCFE6FF180EE66E030EE66E7BECA5F0E1
:10556000146E060EE15E1450FD0EDBCFE9FFFE0E59
:10557000DBCFEAFFEECF10F3EDCF11F3FD0EDBCF63
:10558000E9FFFE0EDBCFEAFF020EE926000EEA225B
:10559000EECF12F3EDCF13F30301AF511C0DF3CF98
:1055A000E9FFF4CFEAFF000EE9260F0EEA22EECF64
:1055B0000EF3EDCF0FF3010EFAD1FD0EDBCFE9FFB5
:1055C000FE0EDBCFEAFF0D0EE926000EEA22EF50B9
:1055D000020B02E1000EEBD10201E751E81102E0FB
:1055E000000EE5D1040EDB6A050EDB6A040EDBCF8C
:1055F00014F0050EDBCF15F0030E145C000E1558E9
:1056000001E3CFD0040EDBCFE9FF050EDBCFEAFFCD
:10561000140EEA02F3CFEAFFE902F3CFE9FFF450F8
:10562000EA26AF0EE926020EEA22100EE926000E47
:10563000EA22EE50ED1001E1B4D0040EDBCFE9FF19
:10564000050EDBCFEAFF140EEA02F3CFEAFFE90210
:10565000F3CFE9FFF450EA26AF0EE926020EEA2264
:10566000100EE926000EEA22EECF14F0EFCF15F06F
:10567000FD0EDBCFE9FFFE0EDBCFEAFF020EE926CF
:10568000000EEA22EECF16F0EFCF17F016501418E6
:1056900002E11750151801E07ED0040EDBCFE9FFC0
:1056A000050EDBCFEAFF140EEA02F3CFEAFFE902B0
:1056B000F3CFE9FFF450EA26AF0EE926020EEA2204
:1056C0000A0EE926000EEA22EECF14F0EFCF15F015
:1056D000FD0EDBCFE9FFFE0EDBCFEAFFEECF16F0CB
:1056E000EFCF17F01650141802E11750151801E00B
:1056F00052D0FB0EDBCFE9FFFC0EDBCFEAFFEECF93
:1057000014F0EECF15F0EECF16F0EFCF17F0040E39
:10571000DBCFE9FF050EDBCFEAFF140EEA02F3CF81
:10572000EAFFE902F3CFE9FFF450EA26AF0EE926DB
:10573000020EEA22EE500001141809E1EE5015188D
:1057400006E1EE50161803E1EE50171800E101E0F3
:1057500022D0F4ECA7F006C014F007C015F0040E38
:10576000DBCFE9FF050EDBCFEAFF140EEA02F3CF31
:10577000EAFFE902F3CFE9FFF450EA26AF0EE9268B
:10578000020EEA22120EE926000EEA2214C0EEFFF3
:1057900015C0EDFF0CD1040EDB2A050E01E3DB2A58
:1057A00025D7DF6ADF50146E156A030E145C000EF5
:1057B000155801E3FAD0DFCFAFF30301AF511C0D51
:1057C000F3CFE9FFF4CFEAFF000EE9260F0EEA223D
:1057D000170EE926000EEA22EF50080B01E1E3D094
:1057E00064EC00F0FD0EDBCFE9FFFE0EDBCFEAFF3D
:1057F000020EE926000EEA22EECF14F0EFCF15F0EC
:1058000014500301121902E11550131901E0CBD015
:105810000A0EE66EE66AFB0EDBCFE6FFFC0EDBCF80
:10582000E6FF040EDBCFE9FF050EDBCFEAFF140E27
:10583000EA02F3CFEAFFE902F3CFE9FFF450EA26E8
:10584000AF0EE926020EEA22E9CF14F0EACF15F0F6
:1058500014C0E6FF15C0E6FF7BECA5F0166E060E41
:10586000E15E1650FD0EDBCFE9FFFE0EDBCFEAFF57
:10587000EECF14F0EFCF15F0040EDBCFE9FF050EED
:10588000DBCFEAFF140EEA02F3CFEAFFE902F3CF1F
:10589000E9FFF450EA26AF0EE926020EEA220A0ECC
:1058A000E926000EEA2214C0EEFF15C0EDFFFD0E42
:1058B000DBCFE9FFFE0EDBCFEAFF040EE926000E88
:1058C000EA22EECF14F0EECF15F0EECF16F0EFCFC8
:1058D00017F0040EDBCFE9FF050EDBCFEAFF140E55
:1058E000EA02F3CFEAFFE902F3CFE9FFF450EA2638
:1058F000AF0EE926020EEA220C0EE926000EEA227D
:1059000014C0EEFF15C0EEFF16C0EEFF17C0EEFF8D
:10591000FD0EDBCFE9FFFE0EDBCFEAFF020EE9262C
:10592000000EEA22EECF14F0EFCF15F0040EDBCF1D
:10593000E9FF050EDBCFEAFF140EEA02F3CFEAFF20
:10594000E902F3CFE9FFF450EA26AF0EE926020E92
:10595000EA22100EE926000EEA2214C0EEFF15C05E
:10596000EDFFF4ECA7F006C014F007C015F0040E2C
:10597000DBCFE9FF050EDBCFEAFF140EEA02F3CF1F
:10598000EAFFE902F3CFE9FFF450EA26AF0EE92679
:10599000020EEA22120EE926000EEA2214C0EEFFE1
:1059A00015C0EDFF04D0DF2AFDD6000E00D0146E26
:1059B000060EE15C02E2E16AE552E16E1450E55246
:1059C000E7CFD9FF1200D9CFE6FFE1CFD9FFFD0E17
:1059D000DBCFE9FFFE0EDBCFEAFFEECFE6FFEFCF36
:1059E000E6FFF6EC6EF0E552E552F3CF14F0F4CF9B
:1059F00015F0FD0EDBCFE9FFFE0EDBCFEAFF14C092
:105A0000EEFF15C0EDFFFD0EDBCFE9FFFE0EDBCF95
:105A1000EAFF020EE926000EEA22EECFE6FFEFCF04
:105A2000E6FFF6EC6EF0E552E552F3CF14F0F4CF5A
:105A300015F0FD0EDBCFE9FFFE0EDBCFEAFF020E15
:105A4000E926000EEA2214C0EEFF15C0EDFFFD0EA0
:105A5000DBCFE9FFFE0EDBCFEAFF040EE926000EE6
:105A6000EA22EECFE6FFEECFE6FFEECFE6FFEFCF86
:105A7000E6FF20EC6FF0E552E552E552E55206C034
:105A800014F007C015F008C016F009C017F0FD0E9D
:105A9000DBCFE9FFFE0EDBCFEAFF040EE926000EA6
:105AA000EA2214C0EEFF15C0EEFF16C0EEFF17C0CD
:105AB000EEFFFD0EDBCFE9FFFE0EDBCFEAFF080EA7
