:100000000C9463010C948B010C948B010C94820F63
:100010000C94A80F0C94CE0F0C948B010C948B01B4
:100020000C948B010C948B010C948B010C94650E39
:100030000C948B010C948B010C948B010C948B0110
:100040000C945D100C948B010C94E70D0C94C00D76
:100050000C940E0E0C948B010C948B010C948B0160
:100060000C948B010C948B0100C1814001C0804134
:1000700001C0804100C1814001C0804100C1814078
:1000800000C1814001C0804101C0804100C1814068
:1000900000C1814001C0804100C1814001C0804158
:1000A00001C0804100C1814001C0804100C1814048
:1000B00000C1814001C0804100C1814001C0804138
:1000C00001C0804100C1814000C1814001C0804128
:1000D00001C0804100C1814001C0804100C1814018
:1000E00000C1814001C0804101C0804100C1814008
:1000F00000C1814001C0804100C1814001C08041F8
:1001000001C0804100C1814000C1814001C08041E7
:1001100001C0804100C1814001C0804100C18140D7
:1001200000C1814001C0804100C1814001C08041C7
:1001300001C0804100C1814001C0804100C18140B7
:1001400000C1814001C0804101C0804100C18140A7
:1001500000C1814001C0804100C1814001C0804197
:1001600001C0804100C1814000C0C101C30302C27F
:10017000C60607C705C5C404CC0C0DCD0FCFCE0EE7
:100180000ACACB0BC90908C8D81819D91BDBDA1A57
:100190001EDEDF1FDD1D1CDC14D4D515D71716D6C7
:1001A000D21213D311D1D010F03031F133F3F23237
:1001B00036F6F737F53534F43CFCFD3DFF3F3EFEA7
:1001C000FA3A3BFB39F9F83828E8E929EB2B2AEA17
:1001D000EE2E2FEF2DEDEC2CE42425E527E7E62687
:1001E00022E2E323E12120E0A06061A163A3A262F7
:1001F00066A6A767A56564A46CACAD6DAF6F6EAE67
:10020000AA6A6BAB69A9A86878B8B979BB7B7ABAD6
:10021000BE7E7FBF7DBDBC7CB47475B577B7B67646
:1002200072B2B373B17170B05090915193535292B6
:1002300096565797559594549C5C5D9D5F9F9E5E26
:100240005A9A9B5B99595898884849894B8B8A4A96
:100250004E8E8F4F8D4D4C8C448485458747468606
:100260008242438341818040000000002400270037
:100270002A0000000000250028002B0000000000DC
:1002800023002600290004040404040404040202D8
:100290000202020203030303030301020408102005
:1002A0004080010204081020010204081020000010
:1002B0000007000201000003040600000000000027
:1002C0000000BD01F40F11241FBECFEFD4E0DEBF4C
:1002D000CDBF11E0A0E0B1E0EAECF2E202C005908F
:1002E0000D92A633B107D9F713E0A6E3B1E001C040
:1002F0001D92A332B107E1F712E0C6ECD2E004C0D0
:100300002297FE010E945F11C23CD107C9F70E94EB
:10031000EE100C9463110C940000FB01DC0102C090
:1003200001900D9241505040D8F7089581E090E03F
:10033000089581E090E008958AB1886F8AB984B108
:10034000876084B98BB187708BB94BB1209136012E
:1003500030E0C90153E0880F991F5A95E1F7482B07
:100360004BB985B1887F85B985B195E035952795DD
:100370009A95E1F7822B85B908958FE391E00E9469
:100380009F0E83E491E00E949F0E089580913701B3
:100390008823A9F481E080933A018FE391E00E94E1
:1003A000EB0E0E94A5106F5070408040904060930B
:1003B0003B0170933C0180933D0190933E01089571
:1003C000EF92FF921F93CF93DF93182F7B010E9430
:1003D000A51020913B0130913C0140913D0150918D
:1003E0003E01621B730B840B950B6B3F71058105FE
:1003F000910590F180913901882321F48FE391E0F8
:100400000E94EB0EC12FD0E0CC0FDD1F809139018F
:1004100090E08C179D0724F48FE391E00E94050F74
:100420000E94A51060933B0170933C0180933D01B5
:1004300090933E01209139012F5F2093390130E0E4
:10044000C7016AEF70E00E941411C60FD71FC217D0
:10045000D30714F410923901DF91CF911F91FF90CF
:10046000EF900895EF92FF920F931F9380913701C1
:10047000882329F068EE73E00E94E0013BC00E94EF
:10048000A5109B01AC01E0903B01F0903C01009174
:100490003D0110913E0180913A01882329F48EEEAE
:1004A00092E0A0E0B0E004C08EE190E0A0E0B0E017
:1004B0002E193F09400B510B82179307A407B5076C
:1004C000C8F48FE391E00E94050F0E94A51060938D
:1004D0003B0170933C0180933D0190933E018091DC
:1004E0003A01882339F08F5F80933A01843010F00D
:1004F00010923A011F910F91FF90EF900895EF92A3
:10050000FF920F931F93CF93DF937C0183E0683EAC
:10051000780708F458C0CA01860F971F815F93407F
:1005200008F051C0EA018B01085E13402115310526
:10053000A9F021303105B9F428C0AE01C930D10588
:1005400014F048E050E086E391E0B8010E94F70C17
:10055000F70181937F012897085F1F4F1C161D0626
:1005600064F30E94C60120E030E02FC0F701219122
:100570007F01AE01C930D10514F048E050E086E3B8
:1005800091E0B8010E94BD0C28971C161D0674F35B
:100590008BB187708BB94BB12091360130E0C90126
:1005A000A3E0880F991FAA95E1F7482B4BB985B1B5
:1005B000887F85B985B1F5E035952795FA95E1F7FE
:1005C000822B85B9CECF21E030E0C901DF91CF91F8
:1005D0001F910F91FF90EF900895CF92DF92EF92CD
:1005E000FF920F931F93CF93DF93EC0183E2693265
:1005F000780708F485C0CA01860F971F8D52934271
:1006000008F07EC06A012115310551F02130310515
:1006100009F043C08B0101501040040F151F6CC03E
:100620007B010894E108F108E40EF51E31C0FAE2FE
:10063000EF16F3E2FF06A9F08BE2E81683E2F80674
:10064000E1F0E9E2EE16E3E2FE06E1F4FE011192CA
:1006500090E080913701823009F491E0EF019993A5
:1006600011C0FE0111928F018CE991E060E070E011
:100670000E948C0E8983E80104C0FE011192198248
:10068000EF0121960894C108D1080894E108F10807
:100690001C141D0464F20E94C60120E030E032C048
:1006A000F3E20A321F0799F083E20B321807D9F000
:1006B000E3E209321E07D9F49E012F5F3F4F898183
:1006C000811182E0E90121968093370110C0FE017B
:1006D0003196EF0121968CE991E060E070E0408175
:1006E0000E94930E04C08981809338012296089459
:1006F000C108D108015010401C141D048CF2CBCF4E
:1007000021E030E0C901DF91CF911F910F91FF905F
:10071000EF90DF90CF900895EF92FF920F931F9389
:100720000E947304882319F08D5F809337010E9423
:100730003202809138018823D9F00E94A5107B01F4
:100740008C0184E690E0A0E0B0E0E80EF91E0A1FFC
:100750001B1F02C00E9473040E94A5106E157F0526
:1007600080079107B8F3E0914701F091480109959E
:1007700083E491E00E941C0F8823B9F50E94A51024
:100780007B018C018FE391E00E94D40E83E491E021
:100790000E941C0F882319F50E94A5106E197F096D
:1007A000800B910B605A7F4080409040C0F4EECFA8
:1007B0008CE991E060E070E047EF0E94930E8FE3D8
:1007C00091E00E94EB0E83E491E00E941C0F8823CD
:1007D000D1F3E0914701F0914801099506C083E407
:1007E00091E00E941C0F882319F31F910F91FF9035
:1007F000EF900895EF92FF920F931F930E949C0138
:100800008FE391E06DE041E00E94A50E83E491E06A
:100810006FE040E00E94A50E83E491E00E94D40EB8
:100820008CE991E06FEF71E00E948C0E8A3271F0DA
:100830008CE991E060E070E047EF0E94930E8CE954
:1008400091E06FEF71E04AE20E94930E8CE991E033
:1008500060E070E00E948C0E873F61F405C083E089
:1008600068EE73E00E94E00183E491E00E941C0FB7
:100870008823A9F78CE991E060E070E00E948C0E7B
:10088000682F80E090E040E000E01CE221E030E0F2
:10089000B2E0EB2EF12C0E94150588E061E042E306
:1008A00051E023E030E00E94FA0A78940E945D044F
:1008B0001F910F91FF90EF9008958091000190910A
:1008C0000101019719F026E030E00BC0E0915601DC
:1008D000F09157010995109201011092000120E05A
:1008E00030E0C90108950F931F93DF93CF9300D099
:1008F000CDB7DEB78091000190910101892B19F0ED
:1009000006E010E08AC0CE0101960E94410D8130C0
:1009100009F081C089819A818130910521F0029787
:1009200009F079C01DC0E0915A01F0915B018EE49D
:1009300091E06FE471E04BE451E009958C01009780
:1009400009F06BC090914E0180915101981719F0F8
:10095000992309F062C082E090E00E94380D5DC0EA
:10096000A0914F01B09150013C9130934D0181E035
:1009700090E090934A0180934901E2E0F1E080E049
:1009800090E020812223D1F0231799F4FC01EE0F8F
:10099000FF1FE80FF91FEE5FFE4F0180F281E02D8F
:1009A000CD016BE471E0099590934A018093490170
:1009B00005C0019633968031910519F780914E015B
:1009C000882349F12091490130914A0121153105CF
:1009D00099F0E0914F01F091500180914D018068B4
:1009E0008083E0914F01F0915001218382E090E0FB
:1009F00090934C0180934B0160914F017091500195
:100A000040914B0150914C01E0915401F0915501FE
:100A100080915101099500E010E0C8010F900F90FE
:100A2000CF91DF911F910F910895EF92FF920F9355
:100A30001F93CF93DF93EC01862F8150873F08F0FF
:100A400089C060935101209729F0C130D10509F088
:100A500081C036C086EE9BE090935701809356018B
:100A60008BE49BE0909359018093580183EF9BE0C6
:100A7000909355018093540187E49CE090935B012F
:100A800080935A0110925D0110925C0184E99BE011
:100A900090931E0280931D0284E59BE090931A02BE
:100AA000809319028DE29BE090931C0280931B02BD
:100AB000862F642FA901980187010E947F0C35C001
:100AC0008FEF96E0909357018093560186EF96E062
:100AD00090935901809358018AEA96E090935501CA
:100AE0008093540184EB95E090935B0180935A01CD
:100AF00010925D0110925C018EE097E090931E02CF
:100B000080931D028DEF95E090931A028093190255
:100B10008EEE95E090931C0280931B02862F642F2B
:100B2000A901980187010E94C5078C010097A1F4D3
:100B30000E94340D882319F403E010E00DC0D09317
:100B40005301C093520181E090E0909301018093A2
:100B5000000102C002E010E0C801DF91CF911F91B7
:100B60000F91FF90EF900895CF93DF93DC01EA019E
:100B7000F8948091620190916301039740F1409154
:100B800062015091630190E020E030E007C0F9017C
:100B9000EE5DFD4F8081980F415050402F5F3F4FD9
:100BA00041155105A1F7992391F4809123028C936B
:100BB000809162019091630102979983888384E216
:100BC00092E0FB019183808320E030E002C025E0C9
:100BD00030E07894C901DF91CF9108958091600150
:100BE000909161010197029720F410926101109297
:100BF00060010E94590E80E008951F9380915E016C
:100C000090915F018230910501F18330910538F4B4
:100C1000009709F497C0019709F098C008C0833085
:100C2000910509F472C0049709F090C079C08AE375
:100C30000E94B60D82E090E090935F0180935E0188
:100C4000109265011092640181C0809168019091B9
:100C50006901892B09F453C0809164019091650169
:100C6000009721F0019709F071C01DC0E091660165
:100C7000F0916701E081E295EF70EA3018F48E2F71
:100C8000805D08C08E2F8A50863010F080E302C04D
:100C90008E2F895C0E94B60D81E090E090936501F3
:100CA0008093640153C0E0916601F0916701E08197
:100CB000EF70EA3018F48E2F805D08C08E2F8A50B6
:100CC000863010F080E302C08E2F895C0E94B60D42
:100CD00080916601909167010196909367018093DE
:100CE00066011092650110926401809168019091F3
:100CF00069010197909369018093680127C08DE095
:100D00000E94B60D83E090E006C080916A010E94C7
:100D1000B60D84E090E090935F0180935E0116C071
:100D200010925F0110925E0183E090E00E94380D06
:100D3000182F81E060E00E94500D10925F01109228
:100D40005E0105C081E060E00E94500D10E0812F3F
:100D50001F910895282FF89480916001909161016E
:100D6000892B19F025E030E03EC0FB013197F0936C
:100D70006701E093660181E090E0909369018093C0
:100D8000680120838091680190916901840F951F0B
:100D90009093690180936801209168013091690105
:100DA00040E004C08191480F2150304021153105A9
:100DB000C9F741958091680190916901FC01ED5D51
:100DC000FD4F40830196909369018093680181E013
:100DD00090E090935F0180935E0180E061E00E946B
:100DE000500D20E030E07894C9010895F89480E037
:100DF00060E00E94500D0E94590E78940895F89476
:100E000081E060E00E94500D10926101109260013B
:100E1000789480E090E00E94380D0895DF93CF939E
:100E20000F92CDB7DEB7CE0101960E94BA0D809128
:100E30006001909161018130910541F0813091050F
:100E400008F48BC0029709F09BC05FC00E943F0E60
:100E500099819A3349F410926501109264011092BD
:100E60006301109262018CC09D3019F482E090E021
:100E700083C0292F20532A3040F0892F8154863097
:100E800010F02FEF02C0292F275380916401909119
:100E90006501009721F0019709F072C01FC0809191
:100EA0006201909163018F3F910509F080F4E09118
:100EB0006201F0916301ED5DFD4F2295207F20835B
:100EC00081E090E0909365018093640159C0109295
:100ED0006101109260010E94590E52C0E0916201BE
:100EE000F0916301ED5DFD4F8081282B208380917F
:100EF0006201909163010196909363018093620176
:100F000010926501109264013BC0998180916A0141
:100F1000981759F40E94590E1092610110926001C5
:100F200081E090E00E94380D2CC09A3389F4109231
:100F3000650110926401109263011092620181E0D8
:100F400090E090936101809360010E943F0E18C071
:100F5000109261011092600113C089818A3381F47B
:100F60000E943F0E1092630110926201109265017F
:100F70001092640181E090E09093610180936001A0
:100F800080E00F90CF91DF9108950F931F93862FEC
:100F9000F8949AE090936A01BA01A90127E00E94AF
:100FA0006F0D813049F480E29EE40E94190E813079
:100FB00019F420E030E002C023E030E07894C90169
:100FC0001F910F910895DC013FEF2FEF11C08D911C
:100FD000422F482750E0CA0188599F4FFC012491B5
:100FE000232748595E4FFA01849161507040382F91
:100FF0006115710561F7932F80E030E0282B392BC4
:10100000C9010895CF93DF93FC01EB018881998199
:101010000697D8F1A181B281938180E02481422F8B
:1010200050E0482B592B3581CA0187709070BA0166
:1010300023E0769567952A95E1F7892B19F0262FFD
:101040002F5F01C0262FCA010197805B9740E8F40B
:101050002317D9F47A2F60E08B2F90E0682B792B3F
:101060006F5F7F4FCF01069621E030E00E947F0244
:10107000009721F00E941E0D9C0109C085E090E0C0
:101080009983888320E030E002C023E030E0C9018A
:10109000DF91CF910895DF93CF9300D0CDB7DEB726
:1010A000DC01FB0180819181059789F511962C91D6
:1010B000119712963C91129714968C91149788234D
:1010C00031F513969C91892F81508E3F00F11A8241
:1010D0009F3F19F481E0898301C01982722F60E07B
:1010E000832F90E0682B792B6F5F7F4FCE010196A5
:1010F00041E050E021E030E00E947F02009719F4C7
:1011000020E030E006C00E941E0D9C0102C023E0DA
:1011100030E0C9010F900F90CF91DF9108950F93A8
:101120001F93CF93DF93FC01EB0188819981059791
:1011300009F04AC00181DF0112963281938180E07B
:101140002481422F50E0482B592BCA0101978F5C14
:101150009740D0F51982188281E080838881998137
:10116000019699838883CA0187709070BA0113E051
:10117000769567951A95E1F7892B19F0162F1F5F61
:1011800001C0162F118388819981019699838883E4
:10119000702F60E0832F90E0682B792B6F5F7F4F7B
:1011A000CD0120E030E00E947F02009721F00E94F4
:1011B0001E0D9C010BC088819981810F911D99831F
:1011C000888320E030E002C023E030E0C901DF91F5
:1011D000CF911F910F9108950F931F93CF93DF939A
:1011E000FC01EB0188819981059709F048C00181D4
:1011F000DF0112963281938180E02481422F50E0FA
:10120000482B592BCA0101978F5C9740C0F5198272
:10121000188282E0808388819981019699838883EE
:10122000CA0187709070BA0123E0769567952A9578
:10123000E1F7892B19F0162F1F5F01C0162F1183BC
:1012400088819981019699838883702F60E0832F2C
:1012500090E0682B792B6F5F7F4FCD010E94990141
:10126000009721F00E941E0D9C010BC0888199817E
:10127000810F911D9983888320E030E002C023E034
:1012800030E0C901DF91CF911F910F9108958F92A6
:101290009F92AF92BF92CF92DF92EF92FF920F9305
:1012A0001F93CF93DF93EC018B01FB018081918130
:1012B0000A9708F46AC0898022E0A22EB12CAC0EF5
:1012C000BD1E9A809B8180E02C81E22EFF24E82ABB
:1012D000F92AED81FE816F8128857985C701019703
:1012E0008D37910508F058C0962F80E0422F50E0CE
:1012F000482B592B4115510509F44EC04A37510569
:1013000008F04AC09A01220F331F872F90E0281758
:10131000390709F041C07E2F60E08F2F90E0682BE5
:10132000792B6F5F7F4FCE010A9621E030E00E945B
:10133000ED02009769F5F8011182108287E1888338
:10134000808191810196918380836701CC0CDD1CA3
:10135000C98280819181019691838083782D60E09C
:10136000892D90E0682B792B6F5F7F4FC501A70116
:1013700020E030E00E94ED02009751F4F8018081F6
:1013800091818C0D9D1D9183808320E030E006C00B
:101390000E941E0D9C0102C023E030E0C901DF91D4
:1013A000CF911F910F91FF90EF90DF90CF90BF9062
:1013B000AF909F908F9008950F931F93CF93DF93DB
:1013C000FC01EB01888199810597D9F5B1819F01D5
:1013D0002E5F3F4FA2818481482F50E0CA010197C0
:1013E0008D37910570F51982188283E0808388819A
:1013F00099810196998388838A01000F111F0183C7
:10140000888199810196998388837B2F60E08A2F58
:1014100090E0682B792B6F5F7F4FC90120E030E0AF
:101420000E94ED02009721F00E941E0D9C010BC04E
:1014300088819981800F911F9983888320E030E013
:1014400002C023E030E0C901DF91CF911F910F91DD
:101450000895CF93DF93FC01EB0188819981069772
:1014600078F13181A281938180E02481422F50E084
:10147000482B592B2581CA0101978837910500F522
:10148000CA01880F991F2817D9F4732F60E08A2F9B
:1014900090E0682B792B6F5F7F4FCF01069621E09C
:1014A00030E00E94ED02009721F00E941E0D9C0189
:1014B00009C085E090E09983888320E030E002C095
:1014C00023E030E0C901DF91CF910895DC01FB01F9
:1014D00080819181059719F023E030E01CC01196BE
:1014E0007C91119760E012968C91129790E0682B96
:1014F000792B6F5F7F4FCD01039641E050E021E0F3
:1015000030E00E94ED02009719F420E030E003C0C3
:101510000E941E0D9C01C9010895FF920F931F9315
:10152000CF93DF93FC01EB01888199810597E1F569
:10153000F180DF0112963281938180E02481422F75
:1015400050E0482B592BCA0101978C37910560F563
:101550001982188284E08083888199810196998319
:1015600088838A01000F111F018388819981019668
:10157000998388837F2D60E0832F90E0682B792BFF
:101580006F5F7F4FCD010E949601009721F00E946E
:101590001E0D9C010BC088819981800F911F99833A
:1015A000888320E030E002C023E030E0C901DF9111
:1015B000CF911F910F91FF9008950F931F938B016F
:1015C0009C012F5F3F4FEBE6F1E040918B01509182
:1015D0008C01C901BF010E948D0180918B01909106
:1015E0008C010196F8019183808380E090E01F9147
:1015F0000F910895CF93DF93E82FE901C901029677
:10160000809718F024E030E024C0E0936B0166235B
:1016100011F480E001C08FEF80936C0182E090E0D4
:1016200090938C0180938B01209789F02DE631E017
:10163000C901BA01AE010E948D0180918B01909188
:101640008C018C0F9D1F90938C0180938B0120E067
:1016500030E0C901DF91CF9108951F9380918F01F0
:1016600090919001009721F0029729F010E008C0B6
:1016700080E090E002C081E090E00E94380D182FD9
:101680000E94590E81E090E09093900180938F0129
:10169000812F1F910895F89480E060E00E94500D22
:1016A0000E94590E789408951F9380918D01909116
:1016B0008E01009719F0019729F406C081E060E0DF
:1016C0000E94500D10E02DC08091930190919401E3
:1016D000892BD1F0E0919101F091920180810E94DB
:1016E000B60D809191019091920101969093920193
:1016F000809391018091930190919401019790932F
:10170000940180939301DECF83E090E00E94380D36
:10171000182F81E060E00E94500D10928E0110920F
:101720008D01812F1F910895DF93CF930F92CDB735
:10173000DEB7CE0101960E94BA0D80918F01909183
:1017400090018130910549F081309105C0F18230DE
:101750009105C1F00397A9F532C01092960110923D
:10176000950180919501909196012981FC01ED5D93
:10177000FD4F20830196909396018093950182E01E
:1017800090E019C080919501909196018F3F91054D
:1017900009F078F480919501909196012981FC01DE
:1017A000ED5DFD4F20830196909396018093950106
:1017B00006C083E090E09093900180938F010E9497
:1017C0003F0E80E00F90CF91DF910895F894109232
:1017D000900110928F0181E060E00E94500D0E9404
:1017E0003F0E78940895CF93DF93F894C0918F01C2
:1017F000D0919001C130D10519F025E030E042C010
:10180000FB013197F0939201E0939101D093940101
:10181000C093930180838091930190919401840FF0
:10182000951F90939401809393016091930170911F
:101830009401CF010E94E30720919301309194011C
:10184000F901ED5DFD4F80832F5F3F4F3093940191
:10185000209393012091930130919401F901ED5D62
:10186000FD4F90832F5F3F4F30939401209393015E
:10187000D0938E01C0938D0180E061E00E94500DF5
:1018800020E030E07894C901DF91CF910895EF9284
:10189000FF920F931F93CF93DF93EC017B018A019B
:1018A000F89480919501909196010497E8F06091E9
:1018B00095017091960183E292E00E94E307892BE3
:1018C00099F48091230288838091950190919601EB
:1018D0000397F8019183808384E292E0F70191837A
:1018E000808320E030E002C025E030E07894C90138
:1018F000DF91CF911F910F91FF90EF900895CF92BC
:10190000DF92EF92FF920F931F93862F69017A0166
:10191000F894BA01A90128E00E946F0D813011F5F9
:1019200081E0C8168BE4D80680E0E80680E0F8067F
:1019300028F083E290E0A0E0B0E00DC0CC0CDD1C0C
:10194000EE1CFF1C60EA7FE787E190E0A7019601AB
:101950000E942711C9010E94190E813019F420E05C
:1019600030E002C023E030E07894C9011F910F916C
:10197000FF90EF90DF90CF9008950F931F93CF9338
:10198000DF9330E0DB0153E0B695A7955A95E1F778
:1019900067707070E1E0F0E002C0EE0FFF1F4A9543
:1019A000E2F731978C010A0F1B1FE801488150E0D4
:1019B0001196A80FB91F9C9180E0482B592B062E39
:1019C00002C0EE0FFF1F0A94E2F7E095F0954E2358
:1019D0005F2302C0220F331F6A95E2F7422B532B7D
:1019E00048835C93DF91CF911F910F910895FB0184
:1019F000B3E0F695E795BA95E1F7DC01AE0FBF1FAE
:101A00002C9130E011969C9180E0822B932BA3E0E7
:101A1000EE0FFF1FAA95E1F76E1B7F0B02C0969594
:101A200087956A95E2F721E030E002C0220F331F6C
:101A30004A95E2F721503040822308958130910584
:101A400031F08130910530F0079751F406C022E063
:101A500030E008C020E030E005C026E030E002C001
:101A600024E030E0C90108951092990181E00895C1
:101A700021E020939901909398018093970181E050
:101A80000895FC0180919901882349F08091970184
:101A900090919801918380831092990181E008953B
:101AA0009091C10098649093C100882321F08091A7
:101AB000C100806903C08091C1008F768093C1000E
:101AC000662339F08091C10088628093C1005A9AE0
:101AD00008958091C1008F7D8093C1000895BF92C9
:101AE000CF92DF92EF92FF920F931F936A017B01D7
:101AF000B22E84E0CC0CDD1CEE1CFF1C8A95D1F7C5
:101B000060E074E284EF90E0A70196010E94271143
:101B1000215030403093C5002093C400013011059E
:101B200039F00230110511F490E203C090E001C0D9
:101B300090E387E0B81629F088E0B81619F49660AB
:101B400001C094608091C200982B9093C20080E005
:101B500060E00E94500D529A5A9881E01F910F91B7
:101B6000FF90EF90DF90CF90BF9008958093C600D4
:101B700081E00895FC018091C600808381E0089592
:101B80001F920F920FB60F9211242F933F934F93F2
:101B90005F936F937F938F939F93AF93BF93EF93D5
:101BA000FF93E0911902F0911A020995FF91EF91CC
:101BB000BF91AF919F918F917F916F915F914F9165
:101BC0003F912F910F900FBE0F901F9018951F926D
:101BD0000F920FB60F9211242F933F934F935F9361
:101BE0006F937F938F939F93AF93BF93EF93FF93E5
:101BF000E0911D02F0911E020995FF91EF91BF91B6
:101C0000AF919F918F917F916F915F914F913F9194
:101C10002F910F900FBE0F901F9018951F920F924B
:101C20000FB60F9211245A980F900FBE0F901F906D
:101C30001895A0E0B0E0BC01CD0129E03DE340E013
:101C400050E00E94F51020E23EE440E050E00E94A7
:101C5000271130939B0120939A0110928000E1E8B4
:101C6000F0E010821092820080818A7F8083EFE60C
:101C7000F0E080818D7F8083B19A81E00895109299
:101C800085001092840020919A0130919B012115CA
:101C9000310549F080916F00826080936F0030932E
:101CA0008900209388008091810085608093810065
:101CB0000895E1E8F0E080818A7F8083EFE6F0E03C
:101CC00080818D7F8083B19A08951F920F920FB605
:101CD0000F9211242F933F934F935F936F937F93B2
:101CE0008F939F93AF93BF93EF93FF93E0911B026A
:101CF000F0911C020995FF91EF91BF91AF919F91D7
:101D00008F917F916F915F914F913F912F910F90A4
:101D10000FBE0F901F901895F999FECF72BD61BD4F
:101D2000F89A80B50895F999FECF1FBA72BD61BDCA
:101D300040BD0FB6F894FA9AF99A0FBE0895FC01C7
:101D400010821182138212820895DC01653130F015
:101D500012961C92129713961C9208956C931196EA
:101D60004C931197262F30E0C90186569D4FFC01F8
:101D7000949113969C9313972A573D4FF9016491C0
:101D800012966C93E62FF0E0EE0FFF1FE859FD4F1F
:101D9000A591B491413019F48C91892B03C08C9199
:101DA000909589238C930895FC018281833049F0BA
:101DB000843061F0823071F485B19381892B85B9CB
:101DC000089588B19381892B88B908958BB1938147
:101DD000892B8BB90895FC018281833051F08430C6
:101DE00071F0823089F495B183818095892385B91A
:101DF000089598B183818095892388B908959BB10E
:101E00008381809589238BB90895FC018281833079
:101E100049F0843061F0823071F485B19381892773
:101E200085B9089588B19381892788B908958BB1C0
:101E3000938189278BB90895FC018281833041F019
:101E4000843041F0823011F040E00EC023B103C075
:101E500026B101C029B140E0838190E030E08223C7
:101E60009323892B09F041E0842F0895EF92FF928C
:101E70000F931F93CF93DF93DC011196ED91FC91AB
:101E80001297208116968C9116978227E82EFF24B0
:101E90001396ED91FC911497808190E08E219F2103
:101EA000892B49F116962C931697ED012796022F50
:101EB00010E01DC08181282F30E0C70182239323C9
:101EC000892BA1F08281813069F0823029F42023AE
:101ED0003123232B39F00AC0833041F420233123EE
:101EE000232B21F00380F481E02D09952296E881CF
:101EF000F9813097F9F6DF91CF911F910F91FF9003
:101F0000EF9008951F920F920FB60F9211242F9306
:101F10003F934F935F936F937F938F939F93AF9371
:101F2000BF93EF93FF9385EC91E00E94360FFF91F2
:101F3000EF91BF91AF919F918F917F916F915F9141
:101F40004F913F912F910F900FBE0F901F901895BA
:101F50001F920F920FB60F9211242F933F934F931E
:101F60005F936F937F938F939F93AF93BF93EF9301
:101F7000FF938EED91E00E94360FFF91EF91BF919C
:101F8000AF919F918F917F916F915F914F913F9111
:101F90002F910F900FBE0F901F9018951F920F92C8
:101FA0000FB60F9211242F933F934F935F936F932C
:101FB0007F938F939F93AF93BF93EF93FF9387EF9D
:101FC00091E00E94360FFF91EF91BF91AF919F91E9
:101FD0008F917F916F915F914F913F912F910F90D2
:101FE0000FBE0F901F901895EDE9F1E0108211825D
:101FF000128214821382359681E0E53CF807B1F72E
:102000001092C501E0E8F2E0859194919093C701A8
:102010008093C6018BE690E09093C9018093C8013C
:1020200081E08093CA011092CB01ACECB1E01D922B
:102030001D92E1E0AE3DBE07D1F781E08C9322E82E
:1020400032E0F9018591949112969C938E931197A9
:102050008CE690E014969C938E93139782E01596ED
:102060008C93159716961C92169717961D921D9293
:10207000F1E0A73FBF07D1F782E08C9324E832E07C
:10208000F9018591949112969C938E9311978DE608
:1020900090E014969C938E93139784E015968C93FE
:1020A000159716961C921697FD013796119211926C
:1020B00082E0E031F807D1F708951F920F920FB632
:1020C0000F9211242F933F938F939F93AF93BF93BE
:1020D0008091140290911502A0911602B0911702FE
:1020E000309118020196A11DB11D232F2D5F2D37B0
:1020F00020F02D570196A11DB11D20931802809349
:10210000140290931502A0931602B09317028091C7
:10211000100290911102A0911202B0911302019647
:10212000A11DB11D8093100290931102A093120281
:10213000B0931302BF91AF919F918F913F912F91D7
:102140000F900FBE0F901F9018958FB7F8942091A5
:1021500014023091150240911602509117028FBF60
:10216000B901CA010895789484B5826084BD84B5AC
:10217000816084BD85B5826085BD85B5816085BD82
:10218000EEE6F0E0808181608083E1E8F0E010829B
:10219000808182608083808181608083E0E8F0E0DC
:1021A000808181608083E1EBF0E0808184608083C6
:1021B000E0EBF0E0808181608083EAE7F0E08081FD
:1021C000846080838081826080838081816080835D
:1021D0008081806880831092C10008950E94B310AE
:1021E0000E94FA030E948C03FDCF629FD001739F6F
:1021F000F001829FE00DF11D649FE00DF11D929FA3
:10220000F00D839FF00D749FF00D659FF00D9927E1
:10221000729FB00DE11DF91F639FB00DE11DF91F05
:10222000BD01CF011124089597FB092E07260AD07E
:1022300077FD04D02ED006D000201AF47095619559
:102240007F4F0895F6F7909581959F4F0895A1E2ED
:102250001A2EAA1BBB1BFD010DC0AA1FBB1FEE1F20
:10226000FF1FA217B307E407F50720F0A21BB30B6B
:10227000E40BF50B661F771F881F991F1A9469F7E7
:1022800060957095809590959B01AC01BD01CF0143
:102290000895AA1BBB1B51E107C0AA1FBB1FA617AD
:1022A000B70710F0A61BB70B881F991F5A95A9F7FF
:1022B00080959095BC01CD010895EE0FFF1F05900C
:0A22C000F491E02D0994F894FFCF8B
:1022CA00020011DD0A048D0A03DC0910290A0666D8
:1022DA000A174709018F08054B080F020802EC0884
:1022EA0000000000000000000000000000000000E4
:0622FA0000004F08010086
:00000001FF
